{
  "_format": "hh-sol-artifact-1",
  "contractName": "UserManager",
  "sourceName": "contracts/UserManager.sol",
  "abi": [
    {
      "inputs": [
        {
          "internalType": "address",
          "name": "_reputationSystemAddress",
          "type": "address"
        }
      ],
      "stateMutability": "nonpayable",
      "type": "constructor"
    },
    {
      "inputs": [
        {
          "internalType": "string",
          "name": "_username",
          "type": "string"
        }
      ],
      "name": "addUser",
      "outputs": [],
      "stateMutability": "nonpayable",
      "type": "function"
    },
    {
      "inputs": [],
      "name": "getAllUsers",
      "outputs": [
        {
          "internalType": "address[]",
          "name": "",
          "type": "address[]"
        }
      ],
      "stateMutability": "view",
      "type": "function"
    },
    {
      "inputs": [
        {
          "internalType": "address",
          "name": "_user",
          "type": "address"
        }
      ],
      "name": "getReputation",
      "outputs": [
        {
          "internalType": "uint256",
          "name": "",
          "type": "uint256"
        }
      ],
      "stateMutability": "view",
      "type": "function"
    },
    {
      "inputs": [
        {
          "internalType": "address",
          "name": "_to",
          "type": "address"
        },
        {
          "internalType": "uint256",
          "name": "_points",
          "type": "uint256"
        }
      ],
      "name": "giveFeedback",
      "outputs": [],
      "stateMutability": "nonpayable",
      "type": "function"
    },
    {
      "inputs": [],
      "name": "reputationSystem",
      "outputs": [
        {
          "internalType": "contract ReputationSystem",
          "name": "",
          "type": "address"
        }
      ],
      "stateMutability": "view",
      "type": "function"
    },
    {
      "inputs": [
        {
          "internalType": "uint256",
          "name": "",
          "type": "uint256"
        }
      ],
      "name": "userList",
      "outputs": [
        {
          "internalType": "address",
          "name": "",
          "type": "address"
        }
      ],
      "stateMutability": "view",
      "type": "function"
    },
    {
      "inputs": [
        {
          "internalType": "address",
          "name": "",
          "type": "address"
        }
      ],
      "name": "users",
      "outputs": [
        {
          "internalType": "address",
          "name": "userAddress",
          "type": "address"
        },
        {
          "internalType": "string",
          "name": "username",
          "type": "string"
        }
      ],
      "stateMutability": "view",
      "type": "function"
    }
  ],
  "bytecode": "0x608060405234801561001057600080fd5b506040516111dd3803806111dd833981810160405281019061003291906100db565b806000806101000a81548173ffffffffffffffffffffffffffffffffffffffff021916908373ffffffffffffffffffffffffffffffffffffffff16021790555050610108565b600080fd5b600073ffffffffffffffffffffffffffffffffffffffff82169050919050565b60006100a88261007d565b9050919050565b6100b88161009d565b81146100c357600080fd5b50565b6000815190506100d5816100af565b92915050565b6000602082840312156100f1576100f0610078565b5b60006100ff848285016100c6565b91505092915050565b6110c6806101176000396000f3fe608060405234801561001057600080fd5b506004361061007d5760003560e01c80639c89a0e21161005b5780639c89a0e2146100d85780639f4216e814610108578063a87430ba14610138578063e2842d79146101695761007d565b806318b8275a146100825780632b47d8021461009e5780636587eda1146100ba575b600080fd5b61009c600480360381019061009791906108a5565b610187565b005b6100b860048036038101906100b39190610982565b610388565b005b6100c26104ea565b6040516100cf9190610a21565b60405180910390f35b6100f260048036038101906100ed9190610a3c565b61050e565b6040516100ff9190610a78565b60405180910390f35b610122600480360381019061011d9190610a93565b6105b2565b60405161012f9190610acf565b60405180910390f35b610152600480360381019061014d9190610a3c565b6105f1565b604051610160929190610b69565b60405180910390f35b6101716106bd565b60405161017e9190610c57565b60405180910390f35b600073ffffffffffffffffffffffffffffffffffffffff16600160003373ffffffffffffffffffffffffffffffffffffffff1673ffffffffffffffffffffffffffffffffffffffff16815260200190815260200160002060000160009054906101000a900473ffffffffffffffffffffffffffffffffffffffff1673ffffffffffffffffffffffffffffffffffffffff1614610258576040517f08c379a000000000000000000000000000000000000000000000000000000000815260040161024f90610cc5565b60405180910390fd5b60405180604001604052803373ffffffffffffffffffffffffffffffffffffffff16815260200182815250600160003373ffffffffffffffffffffffffffffffffffffffff1673ffffffffffffffffffffffffffffffffffffffff16815260200190815260200160002060008201518160000160006101000a81548173ffffffffffffffffffffffffffffffffffffffff021916908373ffffffffffffffffffffffffffffffffffffffff160217905550602082015181600101908161031e9190610ee7565b509050506002339080600181540180825580915050600190039060005260206000200160009091909190916101000a81548173ffffffffffffffffffffffffffffffffffffffff021916908373ffffffffffffffffffffffffffffffffffffffff16021790555050565b600073ffffffffffffffffffffffffffffffffffffffff16600160003373ffffffffffffffffffffffffffffffffffffffff1673ffffffffffffffffffffffffffffffffffffffff16815260200190815260200160002060000160009054906101000a900473ffffffffffffffffffffffffffffffffffffffff1673ffffffffffffffffffffffffffffffffffffffff1603610459576040517f08c379a000000000000000000000000000000000000000000000000000000000815260040161045090611005565b60405180910390fd5b60008054906101000a900473ffffffffffffffffffffffffffffffffffffffff1673ffffffffffffffffffffffffffffffffffffffff16632b47d80283836040518363ffffffff1660e01b81526004016104b4929190611025565b600060405180830381600087803b1580156104ce57600080fd5b505af11580156104e2573d6000803e3d6000fd5b505050505050565b60008054906101000a900473ffffffffffffffffffffffffffffffffffffffff1681565b60008060009054906101000a900473ffffffffffffffffffffffffffffffffffffffff1673ffffffffffffffffffffffffffffffffffffffff16639c89a0e2836040518263ffffffff1660e01b815260040161056a9190610acf565b602060405180830381865afa158015610587573d6000803e3d6000fd5b505050506040513d601f19601f820116820180604052508101906105ab9190611063565b9050919050565b600281815481106105c257600080fd5b906000526020600020016000915054906101000a900473ffffffffffffffffffffffffffffffffffffffff1681565b60016020528060005260406000206000915090508060000160009054906101000a900473ffffffffffffffffffffffffffffffffffffffff169080600101805461063a90610d14565b80601f016020809104026020016040519081016040528092919081815260200182805461066690610d14565b80156106b35780601f10610688576101008083540402835291602001916106b3565b820191906000526020600020905b81548152906001019060200180831161069657829003601f168201915b5050505050905082565b6060600280548060200260200160405190810160405280929190818152602001828054801561074157602002820191906000526020600020905b8160009054906101000a900473ffffffffffffffffffffffffffffffffffffffff1673ffffffffffffffffffffffffffffffffffffffff16815260200190600101908083116106f7575b5050505050905090565b6000604051905090565b600080fd5b600080fd5b600080fd5b600080fd5b6000601f19601f8301169050919050565b7f4e487b7100000000000000000000000000000000000000000000000000000000600052604160045260246000fd5b6107b282610769565b810181811067ffffffffffffffff821117156107d1576107d061077a565b5b80604052505050565b60006107e461074b565b90506107f082826107a9565b919050565b600067ffffffffffffffff8211156108105761080f61077a565b5b61081982610769565b9050602081019050919050565b82818337600083830152505050565b6000610848610843846107f5565b6107da565b90508281526020810184848401111561086457610863610764565b5b61086f848285610826565b509392505050565b600082601f83011261088c5761088b61075f565b5b813561089c848260208601610835565b91505092915050565b6000602082840312156108bb576108ba610755565b5b600082013567ffffffffffffffff8111156108d9576108d861075a565b5b6108e584828501610877565b91505092915050565b600073ffffffffffffffffffffffffffffffffffffffff82169050919050565b6000610919826108ee565b9050919050565b6109298161090e565b811461093457600080fd5b50565b60008135905061094681610920565b92915050565b6000819050919050565b61095f8161094c565b811461096a57600080fd5b50565b60008135905061097c81610956565b92915050565b6000806040838503121561099957610998610755565b5b60006109a785828601610937565b92505060206109b88582860161096d565b9150509250929050565b6000819050919050565b60006109e76109e26109dd846108ee565b6109c2565b6108ee565b9050919050565b60006109f9826109cc565b9050919050565b6000610a0b826109ee565b9050919050565b610a1b81610a00565b82525050565b6000602082019050610a366000830184610a12565b92915050565b600060208284031215610a5257610a51610755565b5b6000610a6084828501610937565b91505092915050565b610a728161094c565b82525050565b6000602082019050610a8d6000830184610a69565b92915050565b600060208284031215610aa957610aa8610755565b5b6000610ab78482850161096d565b91505092915050565b610ac98161090e565b82525050565b6000602082019050610ae46000830184610ac0565b92915050565b600081519050919050565b600082825260208201905092915050565b60005b83811015610b24578082015181840152602081019050610b09565b60008484015250505050565b6000610b3b82610aea565b610b458185610af5565b9350610b55818560208601610b06565b610b5e81610769565b840191505092915050565b6000604082019050610b7e6000830185610ac0565b8181036020830152610b908184610b30565b90509392505050565b600081519050919050565b600082825260208201905092915050565b6000819050602082019050919050565b610bce8161090e565b82525050565b6000610be08383610bc5565b60208301905092915050565b6000602082019050919050565b6000610c0482610b99565b610c0e8185610ba4565b9350610c1983610bb5565b8060005b83811015610c4a578151610c318882610bd4565b9750610c3c83610bec565b925050600181019050610c1d565b5085935050505092915050565b60006020820190508181036000830152610c718184610bf9565b905092915050565b7f5573657220616c72656164792065786973747300000000000000000000000000600082015250565b6000610caf601383610af5565b9150610cba82610c79565b602082019050919050565b60006020820190508181036000830152610cde81610ca2565b9050919050565b7f4e487b7100000000000000000000000000000000000000000000000000000000600052602260045260246000fd5b60006002820490506001821680610d2c57607f821691505b602082108103610d3f57610d3e610ce5565b5b50919050565b60008190508160005260206000209050919050565b60006020601f8301049050919050565b600082821b905092915050565b600060088302610da77fffffffffffffffffffffffffffffffffffffffffffffffffffffffffffffffff82610d6a565b610db18683610d6a565b95508019841693508086168417925050509392505050565b6000610de4610ddf610dda8461094c565b6109c2565b61094c565b9050919050565b6000819050919050565b610dfe83610dc9565b610e12610e0a82610deb565b848454610d77565b825550505050565b600090565b610e27610e1a565b610e32818484610df5565b505050565b5b81811015610e5657610e4b600082610e1f565b600181019050610e38565b5050565b601f821115610e9b57610e6c81610d45565b610e7584610d5a565b81016020851015610e84578190505b610e98610e9085610d5a565b830182610e37565b50505b505050565b600082821c905092915050565b6000610ebe60001984600802610ea0565b1980831691505092915050565b6000610ed78383610ead565b9150826002028217905092915050565b610ef082610aea565b67ffffffffffffffff811115610f0957610f0861077a565b5b610f138254610d14565b610f1e828285610e5a565b600060209050601f831160018114610f515760008415610f3f578287015190505b610f498582610ecb565b865550610fb1565b601f198416610f5f86610d45565b60005b82811015610f8757848901518255600182019150602085019450602081019050610f62565b86831015610fa45784890151610fa0601f891682610ead565b8355505b6001600288020188555050505b505050505050565b7f596f75206d757374207265676973746572206669727374000000000000000000600082015250565b6000610fef601783610af5565b9150610ffa82610fb9565b602082019050919050565b6000602082019050818103600083015261101e81610fe2565b9050919050565b600060408201905061103a6000830185610ac0565b6110476020830184610a69565b9392505050565b60008151905061105d81610956565b92915050565b60006020828403121561107957611078610755565b5b60006110878482850161104e565b9150509291505056fea26469706673582212203c78dddd22ec4db64a40622d34ba6032f0a3439cdcc65730ec602ba73c305a5964736f6c634300081b0033",
  "linkReferences": {},
  "deployedLinkReferences": {}
}