{
  "_format": "hh-sol-artifact-1",
  "contractName": "ReputationSystem",
  "sourceName": "contracts/ReputationSystem.sol",
  "abi": [
    {
      "inputs": [],
      "stateMutability": "nonpayable",
      "type": "constructor"
    },
    {
      "inputs": [
        {
          "internalType": "address",
          "name": "",
          "type": "address"
        },
        {
          "internalType": "uint256",
          "name": "",
          "type": "uint256"
        }
      ],
      "name": "feedbacks",
      "outputs": [
        {
          "internalType": "uint256",
          "name": "points",
          "type": "uint256"
        },
        {
          "internalType": "uint256",
          "name": "timestamp",
          "type": "uint256"
        }
      ],
      "stateMutability": "view",
      "type": "function"
    },
    {
      "inputs": [
        {
          "internalType": "address",
          "name": "_user",
          "type": "address"
        }
      ],
      "name": "getReputation",
      "outputs": [
        {
          "internalType": "uint256",
          "name": "",
          "type": "uint256"
        }
      ],
      "stateMutability": "view",
      "type": "function"
    },
    {
      "inputs": [
        {
          "internalType": "address",
          "name": "_to",
          "type": "address"
        },
        {
          "internalType": "uint256",
          "name": "_points",
          "type": "uint256"
        }
      ],
      "name": "giveFeedback",
      "outputs": [],
      "stateMutability": "nonpayable",
      "type": "function"
    },
    {
      "inputs": [
        {
          "internalType": "address",
          "name": "",
          "type": "address"
        }
      ],
      "name": "reputation",
      "outputs": [
        {
          "internalType": "uint256",
          "name": "",
          "type": "uint256"
        }
      ],
      "stateMutability": "view",
      "type": "function"
    }
  ],
  "bytecode": "0x6080604052348015600f57600080fd5b5061047e8061001f6000396000f3fe608060405234801561001057600080fd5b506004361061004c5760003560e01c80632b47d802146100515780638c6529c11461006d5780639c89a0e21461009e578063b9f79451146100ce575b600080fd5b61006b60048036038101906100669190610325565b6100fe565b005b61008760048036038101906100829190610325565b6101ea565b604051610095929190610374565b60405180910390f35b6100b860048036038101906100b3919061039d565b61022b565b6040516100c591906103ca565b60405180910390f35b6100e860048036038101906100e3919061039d565b610274565b6040516100f591906103ca565b60405180910390f35b6000808373ffffffffffffffffffffffffffffffffffffffff1673ffffffffffffffffffffffffffffffffffffffff16815260200190815260200160002060405180604001604052808381526020014281525090806001815401808255809150506001900390600052602060002090600202016000909190919091506000820151816000015560208201518160010155505080600160008473ffffffffffffffffffffffffffffffffffffffff1673ffffffffffffffffffffffffffffffffffffffff16815260200190815260200160002060008282546101df9190610414565b925050819055505050565b6000602052816000526040600020818154811061020657600080fd5b9060005260206000209060020201600091509150508060000154908060010154905082565b6000600160008373ffffffffffffffffffffffffffffffffffffffff1673ffffffffffffffffffffffffffffffffffffffff168152602001908152602001600020549050919050565b60016020528060005260406000206000915090505481565b600080fd5b600073ffffffffffffffffffffffffffffffffffffffff82169050919050565b60006102bc82610291565b9050919050565b6102cc816102b1565b81146102d757600080fd5b50565b6000813590506102e9816102c3565b92915050565b6000819050919050565b610302816102ef565b811461030d57600080fd5b50565b60008135905061031f816102f9565b92915050565b6000806040838503121561033c5761033b61028c565b5b600061034a858286016102da565b925050602061035b85828601610310565b9150509250929050565b61036e816102ef565b82525050565b60006040820190506103896000830185610365565b6103966020830184610365565b9392505050565b6000602082840312156103b3576103b261028c565b5b60006103c1848285016102da565b91505092915050565b60006020820190506103df6000830184610365565b92915050565b7f4e487b7100000000000000000000000000000000000000000000000000000000600052601160045260246000fd5b600061041f826102ef565b915061042a836102ef565b9250828201905080821115610442576104416103e5565b5b9291505056fea2646970667358221220ac3f4a01fb1f63f12055f5a17d0ed2e9592cd9e9b9e86c401bc3131e9b631ee364736f6c634300081b0033",
  "linkReferences": {},
  "deployedLinkReferences": {}
}