{
	"data": {
		"bytecode": {
			"linkReferences": {},
			"object": "6080604052348015600e575f80fd5b506131578061001c5f395ff3fe608060405234801561000f575f80fd5b506004361061003f575f3560e01c80631156d3e91461004357806394d3701e14610074578063c969ebdd14610090575b5f80fd5b61005d600480360381019061005891906103fc565b6100ae565b60405161006b9291906104d6565b60405180910390f35b61008e60048036038101906100899190610630565b610181565b005b61009861026c565b6040516100a591906107d6565b60405180910390f35b5f81815481106100bc575f80fd5b905f5260205f2090600202015f91509050805f015f9054906101000a900473ffffffffffffffffffffffffffffffffffffffff169080600101805461010090610823565b80601f016020809104026020016040519081016040528092919081815260200182805461012c90610823565b80156101775780601f1061014e57610100808354040283529160200191610177565b820191905f5260205f20905b81548152906001019060200180831161015a57829003601f168201915b5050505050905082565b5f823383604051610191906103ab565b61019d93929190610862565b604051809103905ff0801580156101b6573d5f803e3d5ffd5b5090505f60405180604001604052808373ffffffffffffffffffffffffffffffffffffffff16815260200185815250908060018154018082558091505060019003905f5260205f2090600202015f909190919091505f820151815f015f6101000a81548173ffffffffffffffffffffffffffffffffffffffff021916908373ffffffffffffffffffffffffffffffffffffffff16021790555060208201518160010190816102649190610a3b565b505050505050565b60605f805480602002602001604051908101604052809291908181526020015f905b828210156103a2578382905f5260205f2090600202016040518060400160405290815f82015f9054906101000a900473ffffffffffffffffffffffffffffffffffffffff1673ffffffffffffffffffffffffffffffffffffffff1673ffffffffffffffffffffffffffffffffffffffff16815260200160018201805461031390610823565b80601f016020809104026020016040519081016040528092919081815260200182805461033f90610823565b801561038a5780601f106103615761010080835404028352916020019161038a565b820191905f5260205f20905b81548152906001019060200180831161036d57829003601f168201915b5050505050815250508152602001906001019061028e565b50505050905090565b61261780610b0b83390190565b5f604051905090565b5f80fd5b5f80fd5b5f819050919050565b6103db816103c9565b81146103e5575f80fd5b50565b5f813590506103f6816103d2565b92915050565b5f60208284031215610411576104106103c1565b5b5f61041e848285016103e8565b91505092915050565b5f73ffffffffffffffffffffffffffffffffffffffff82169050919050565b5f61045082610427565b9050919050565b61046081610446565b82525050565b5f81519050919050565b5f82825260208201905092915050565b8281835e5f83830152505050565b5f601f19601f8301169050919050565b5f6104a882610466565b6104b28185610470565b93506104c2818560208601610480565b6104cb8161048e565b840191505092915050565b5f6040820190506104e95f830185610457565b81810360208301526104fb818461049e565b90509392505050565b5f80fd5b5f80fd5b7f4e487b71000000000000000000000000000000000000000000000000000000005f52604160045260245ffd5b6105428261048e565b810181811067ffffffffffffffff821117156105615761056061050c565b5b80604052505050565b5f6105736103b8565b905061057f8282610539565b919050565b5f67ffffffffffffffff82111561059e5761059d61050c565b5b6105a78261048e565b9050602081019050919050565b828183375f83830152505050565b5f6105d46105cf84610584565b61056a565b9050828152602081018484840111156105f0576105ef610508565b5b6105fb8482856105b4565b509392505050565b5f82601f83011261061757610616610504565b5b81356106278482602086016105c2565b91505092915050565b5f8060408385031215610646576106456103c1565b5b5f83013567ffffffffffffffff811115610663576106626103c5565b5b61066f85828601610603565b9250506020610680858286016103e8565b9150509250929050565b5f81519050919050565b5f82825260208201905092915050565b5f819050602082019050919050565b6106bc81610446565b82525050565b5f82825260208201905092915050565b5f6106dc82610466565b6106e681856106c2565b93506106f6818560208601610480565b6106ff8161048e565b840191505092915050565b5f604083015f83015161071f5f8601826106b3565b506020830151848203602086015261073782826106d2565b9150508091505092915050565b5f61074f838361070a565b905092915050565b5f602082019050919050565b5f61076d8261068a565b6107778185610694565b935083602082028501610789856106a4565b805f5b858110156107c457848403895281516107a58582610744565b94506107b083610757565b925060208a0199505060018101905061078c565b50829750879550505050505092915050565b5f6020820190508181035f8301526107ee8184610763565b905092915050565b7f4e487b71000000000000000000000000000000000000000000000000000000005f52602260045260245ffd5b5f600282049050600182168061083a57607f821691505b60208210810361084d5761084c6107f6565b5b50919050565b61085c816103c9565b82525050565b5f6060820190508181035f83015261087a818661049e565b90506108896020830185610457565b6108966040830184610853565b949350505050565b5f819050815f5260205f209050919050565b5f6020601f8301049050919050565b5f82821b905092915050565b5f600883026108fa7fffffffffffffffffffffffffffffffffffffffffffffffffffffffffffffffff826108bf565b61090486836108bf565b95508019841693508086168417925050509392505050565b5f819050919050565b5f61093f61093a610935846103c9565b61091c565b6103c9565b9050919050565b5f819050919050565b61095883610925565b61096c61096482610946565b8484546108cb565b825550505050565b5f90565b610980610974565b61098b81848461094f565b505050565b5b818110156109ae576109a35f82610978565b600181019050610991565b5050565b601f8211156109f3576109c48161089e565b6109cd846108b0565b810160208510156109dc578190505b6109f06109e8856108b0565b830182610990565b50505b505050565b5f82821c905092915050565b5f610a135f19846008026109f8565b1980831691505092915050565b5f610a2b8383610a04565b9150826002028217905092915050565b610a4482610466565b67ffffffffffffffff811115610a5d57610a5c61050c565b5b610a678254610823565b610a728282856109b2565b5f60209050601f831160018114610aa3575f8415610a91578287015190505b610a9b8582610a20565b865550610b02565b601f198416610ab18661089e565b5f5b82811015610ad857848901518255600182019150602085019450602081019050610ab3565b86831015610af55784890151610af1601f891682610a04565b8355505b6001600288020188555050505b50505050505056fe608060405234801561000f575f80fd5b5060405161261738038061261783398181016040528101906100319190610282565b825f908161003f91906104f2565b508160015f6101000a81548173ffffffffffffffffffffffffffffffffffffffff021916908373ffffffffffffffffffffffffffffffffffffffff160217905550620151808161008f91906105ee565b4261009a919061062f565b600281905550505050610662565b5f604051905090565b5f80fd5b5f80fd5b5f80fd5b5f80fd5b5f601f19601f8301169050919050565b7f4e487b71000000000000000000000000000000000000000000000000000000005f52604160045260245ffd5b610107826100c1565b810181811067ffffffffffffffff82111715610126576101256100d1565b5b80604052505050565b5f6101386100a8565b905061014482826100fe565b919050565b5f67ffffffffffffffff821115610163576101626100d1565b5b61016c826100c1565b9050602081019050919050565b8281835e5f83830152505050565b5f61019961019484610149565b61012f565b9050828152602081018484840111156101b5576101b46100bd565b5b6101c0848285610179565b509392505050565b5f82601f8301126101dc576101db6100b9565b5b81516101ec848260208601610187565b91505092915050565b5f73ffffffffffffffffffffffffffffffffffffffff82169050919050565b5f61021e826101f5565b9050919050565b61022e81610214565b8114610238575f80fd5b50565b5f8151905061024981610225565b92915050565b5f819050919050565b6102618161024f565b811461026b575f80fd5b50565b5f8151905061027c81610258565b92915050565b5f805f60608486031215610299576102986100b1565b5b5f84015167ffffffffffffffff8111156102b6576102b56100b5565b5b6102c2868287016101c8565b93505060206102d38682870161023b565b92505060406102e48682870161026e565b9150509250925092565b5f81519050919050565b7f4e487b71000000000000000000000000000000000000000000000000000000005f52602260045260245ffd5b5f600282049050600182168061033c57607f821691505b60208210810361034f5761034e6102f8565b5b50919050565b5f819050815f5260205f209050919050565b5f6020601f8301049050919050565b5f82821b905092915050565b5f600883026103b17fffffffffffffffffffffffffffffffffffffffffffffffffffffffffffffffff82610376565b6103bb8683610376565b95508019841693508086168417925050509392505050565b5f819050919050565b5f6103f66103f16103ec8461024f565b6103d3565b61024f565b9050919050565b5f819050919050565b61040f836103dc565b61042361041b826103fd565b848454610382565b825550505050565b5f90565b61043761042b565b610442818484610406565b505050565b5b818110156104655761045a5f8261042f565b600181019050610448565b5050565b601f8211156104aa5761047b81610355565b61048484610367565b81016020851015610493578190505b6104a761049f85610367565b830182610447565b50505b505050565b5f82821c905092915050565b5f6104ca5f19846008026104af565b1980831691505092915050565b5f6104e283836104bb565b9150826002028217905092915050565b6104fb826102ee565b67ffffffffffffffff811115610514576105136100d1565b5b61051e8254610325565b610529828285610469565b5f60209050601f83116001811461055a575f8415610548578287015190505b61055285826104d7565b8655506105b9565b601f19841661056886610355565b5f5b8281101561058f5784890151825560018201915060208501945060208101905061056a565b868310156105ac57848901516105a8601f8916826104bb565b8355505b6001600288020188555050505b505050505050565b7f4e487b71000000000000000000000000000000000000000000000000000000005f52601160045260245ffd5b5f6105f88261024f565b91506106038361024f565b92508282026106118161024f565b91508282048414831517610628576106276105c1565b5b5092915050565b5f6106398261024f565b91506106448361024f565b925082820190508082111561065c5761065b6105c1565b5b92915050565b611fa88061066f5f395ff3fe6080604052600436106100e7575f3560e01c80639475c16311610089578063cc6cb19a11610058578063cc6cb19a146102b7578063de2ed893146102f3578063e792dd8a1461031d578063ed88c68e1461035b576100e7565b80639475c1631461021f57806396f300d4146102475780639754a3a814610271578063b6e7eff11461029b576100e7565b806329dcb0cf116100c557806329dcb0cf146101795780633a6a4d2e146101a3578063481c6a75146101b95780634abfa163146101e3576100e7565b80630121b93f146100eb57806306fdde031461011357806309eef43e1461013d575b5f80fd5b3480156100f6575f80fd5b50610111600480360381019061010c91906110de565b610365565b005b34801561011e575f80fd5b50610127610550565b6040516101349190611179565b60405180910390f35b348015610148575f80fd5b50610163600480360381019061015e91906111f3565b6105db565b6040516101709190611238565b60405180910390f35b348015610184575f80fd5b5061018d6105f8565b60405161019a9190611260565b60405180910390f35b3480156101ae575f80fd5b506101b76105fe565b005b3480156101c4575f80fd5b506101cd610969565b6040516101da9190611288565b60405180910390f35b3480156101ee575f80fd5b50610209600480360381019061020491906110de565b61098e565b6040516102169190611288565b60405180910390f35b34801561022a575f80fd5b5061024560048036038101906102409190611408565b6109c9565b005b348015610252575f80fd5b5061025b610b1b565b6040516102689190611519565b60405180910390f35b34801561027c575f80fd5b50610285610ba6565b60405161029291906116a7565b60405180910390f35b6102b560048036038101906102b091906110de565b610cf0565b005b3480156102c2575f80fd5b506102dd60048036038101906102d891906111f3565b610dbf565b6040516102ea9190611260565b60405180910390f35b3480156102fe575f80fd5b50610307610dd4565b6040516103149190611260565b60405180910390f35b348015610328575f80fd5b50610343600480360381019061033e91906110de565b610dda565b604051610352939291906116d6565b60405180910390f35b610363610eb4565b005b60025442106103a9576040517f08c379a00000000000000000000000000000000000000000000000000000000081526004016103a09061175c565b60405180910390fd5b60075f3373ffffffffffffffffffffffffffffffffffffffff1673ffffffffffffffffffffffffffffffffffffffff1681526020019081526020015f205f9054906101000a900460ff1615610433576040517f08c379a000000000000000000000000000000000000000000000000000000000815260040161042a906117c4565b60405180910390fd5b600680549050811061047a576040517f08c379a00000000000000000000000000000000000000000000000000000000081526004016104719061182c565b60405180910390fd5b600160075f3373ffffffffffffffffffffffffffffffffffffffff1673ffffffffffffffffffffffffffffffffffffffff1681526020019081526020015f205f6101000a81548160ff0219169083151502179055506001600682815481106104e5576104e461184a565b5b905f5260205f2090600302016002015f82825461050291906118a4565b92505081905550803373ffffffffffffffffffffffffffffffffffffffff167f758ce7d2b09ac027fc94a1655219010aa7e53bbc780a4ff3161fa70fb2aa915160405160405180910390a350565b5f805461055c90611904565b80601f016020809104026020016040519081016040528092919081815260200182805461058890611904565b80156105d35780601f106105aa576101008083540402835291602001916105d3565b820191905f5260205f20905b8154815290600101906020018083116105b657829003601f168201915b505050505081565b6007602052805f5260405f205f915054906101000a900460ff1681565b60025481565b60015f9054906101000a900473ffffffffffffffffffffffffffffffffffffffff1673ffffffffffffffffffffffffffffffffffffffff163373ffffffffffffffffffffffffffffffffffffffff161461068d576040517f08c379a0000000000000000000000000000000000000000000000000000000008152600401610684906119a4565b60405180910390fd5b6002544210156106d2576040517f08c379a00000000000000000000000000000000000000000000000000000000081526004016106c990611a32565b60405180910390fd5b5f805b6006805490508110156107415781600682815481106106f7576106f661184a565b5b905f5260205f20906003020160020154111561073457600681815481106107215761072061184a565b5b905f5260205f2090600302016002015491505b80806001019150506106d5565b505f805b6006805490508110156107985782600682815481106107675761076661184a565b5b905f5260205f209060030201600201540361078b57818061078790611a50565b9250505b8080600101915050610745565b505f81116107db576040517f08c379a00000000000000000000000000000000000000000000000000000000081526004016107d290611b07565b60405180910390fd5b5f816003546107ea9190611b52565b90505f60038190555062278d004261080291906118a4565b6002819055505f5b60068054905081101561096357836006828154811061082c5761082b61184a565b5b905f5260205f209060030201600201540361095657600681815481106108555761085461184a565b5b905f5260205f2090600302015f015f9054906101000a900473ffffffffffffffffffffffffffffffffffffffff1673ffffffffffffffffffffffffffffffffffffffff166108fc8390811502906040515f60405180830381858888f193505050501580156108c5573d5f803e3d5ffd5b50600681815481106108da576108d961184a565b5b905f5260205f2090600302015f015f9054906101000a900473ffffffffffffffffffffffffffffffffffffffff1673ffffffffffffffffffffffffffffffffffffffff167f26536799ace2c3dbe12e638ec3ade6b4173dcf1289be0a58d51a5003015649bd8360405161094d9190611260565b60405180910390a25b808060010191505061080a565b50505050565b60015f9054906101000a900473ffffffffffffffffffffffffffffffffffffffff1681565b6005818154811061099d575f80fd5b905f5260205f20015f915054906101000a900473ffffffffffffffffffffffffffffffffffffffff1681565b60015f9054906101000a900473ffffffffffffffffffffffffffffffffffffffff1673ffffffffffffffffffffffffffffffffffffffff163373ffffffffffffffffffffffffffffffffffffffff1614610a58576040517f08c379a0000000000000000000000000000000000000000000000000000000008152600401610a4f90611bf2565b60405180910390fd5b600660405180606001604052808373ffffffffffffffffffffffffffffffffffffffff1681526020018481526020015f815250908060018154018082558091505060019003905f5260205f2090600302015f909190919091505f820151815f015f6101000a81548173ffffffffffffffffffffffffffffffffffffffff021916908373ffffffffffffffffffffffffffffffffffffffff1602179055506020820151816001019081610b0a9190611dad565b506040820151816002015550505050565b60606005805480602002602001604051908101604052809291908181526020018280548015610b9c57602002820191905f5260205f20905b815f9054906101000a900473ffffffffffffffffffffffffffffffffffffffff1673ffffffffffffffffffffffffffffffffffffffff1681526020019060010190808311610b53575b5050505050905090565b60606006805480602002602001604051908101604052809291908181526020015f905b82821015610ce7578382905f5260205f2090600302016040518060600160405290815f82015f9054906101000a900473ffffffffffffffffffffffffffffffffffffffff1673ffffffffffffffffffffffffffffffffffffffff1673ffffffffffffffffffffffffffffffffffffffff168152602001600182018054610c4e90611904565b80601f0160208091040260200160405190810160405280929190818152602001828054610c7a90611904565b8015610cc55780601f10610c9c57610100808354040283529160200191610cc5565b820191905f5260205f20905b815481529060010190602001808311610ca857829003601f168201915b5050505050815260200160028201548152505081526020019060010190610bc9565b50505050905090565b6006805490508110610d37576040517f08c379a0000000000000000000000000000000000000000000000000000000008152600401610d2e9061182c565b60405180910390fd5b60068181548110610d4b57610d4a61184a565b5b905f5260205f2090600302015f015f9054906101000a900473ffffffffffffffffffffffffffffffffffffffff1673ffffffffffffffffffffffffffffffffffffffff166108fc3490811502906040515f60405180830381858888f19350505050158015610dbb573d5f803e3d5ffd5b5050565b6004602052805f5260405f205f915090505481565b60035481565b60068181548110610de9575f80fd5b905f5260205f2090600302015f91509050805f015f9054906101000a900473ffffffffffffffffffffffffffffffffffffffff1690806001018054610e2d90611904565b80601f0160208091040260200160405190810160405280929190818152602001828054610e5990611904565b8015610ea45780601f10610e7b57610100808354040283529160200191610ea4565b820191905f5260205f20905b815481529060010190602001808311610e8757829003601f168201915b5050505050908060020154905083565b6002544210610ef8576040517f08c379a0000000000000000000000000000000000000000000000000000000008152600401610eef90611ec6565b60405180910390fd5b5f3411610f3a576040517f08c379a0000000000000000000000000000000000000000000000000000000008152600401610f3190611f54565b60405180910390fd5b5f60045f3373ffffffffffffffffffffffffffffffffffffffff1673ffffffffffffffffffffffffffffffffffffffff1681526020019081526020015f205403610fdf57600533908060018154018082558091505060019003905f5260205f20015f9091909190916101000a81548173ffffffffffffffffffffffffffffffffffffffff021916908373ffffffffffffffffffffffffffffffffffffffff1602179055505b3460045f3373ffffffffffffffffffffffffffffffffffffffff1673ffffffffffffffffffffffffffffffffffffffff1681526020019081526020015f205f82825461102b91906118a4565b925050819055503460035f82825461104391906118a4565b925050819055503373ffffffffffffffffffffffffffffffffffffffff167f264f630d9efa0d07053a31163641d9fcc0adafc9d9e76f1c37c2ce3a558d2c52346040516110909190611260565b60405180910390a2565b5f604051905090565b5f80fd5b5f80fd5b5f819050919050565b6110bd816110ab565b81146110c7575f80fd5b50565b5f813590506110d8816110b4565b92915050565b5f602082840312156110f3576110f26110a3565b5b5f611100848285016110ca565b91505092915050565b5f81519050919050565b5f82825260208201905092915050565b8281835e5f83830152505050565b5f601f19601f8301169050919050565b5f61114b82611109565b6111558185611113565b9350611165818560208601611123565b61116e81611131565b840191505092915050565b5f6020820190508181035f8301526111918184611141565b905092915050565b5f73ffffffffffffffffffffffffffffffffffffffff82169050919050565b5f6111c282611199565b9050919050565b6111d2816111b8565b81146111dc575f80fd5b50565b5f813590506111ed816111c9565b92915050565b5f60208284031215611208576112076110a3565b5b5f611215848285016111df565b91505092915050565b5f8115159050919050565b6112328161121e565b82525050565b5f60208201905061124b5f830184611229565b92915050565b61125a816110ab565b82525050565b5f6020820190506112735f830184611251565b92915050565b611282816111b8565b82525050565b5f60208201905061129b5f830184611279565b92915050565b5f80fd5b5f80fd5b7f4e487b71000000000000000000000000000000000000000000000000000000005f52604160045260245ffd5b6112df82611131565b810181811067ffffffffffffffff821117156112fe576112fd6112a9565b5b80604052505050565b5f61131061109a565b905061131c82826112d6565b919050565b5f67ffffffffffffffff82111561133b5761133a6112a9565b5b61134482611131565b9050602081019050919050565b828183375f83830152505050565b5f61137161136c84611321565b611307565b90508281526020810184848401111561138d5761138c6112a5565b5b611398848285611351565b509392505050565b5f82601f8301126113b4576113b36112a1565b5b81356113c484826020860161135f565b91505092915050565b5f6113d782611199565b9050919050565b6113e7816113cd565b81146113f1575f80fd5b50565b5f81359050611402816113de565b92915050565b5f806040838503121561141e5761141d6110a3565b5b5f83013567ffffffffffffffff81111561143b5761143a6110a7565b5b611447858286016113a0565b9250506020611458858286016113f4565b9150509250929050565b5f81519050919050565b5f82825260208201905092915050565b5f819050602082019050919050565b611494816111b8565b82525050565b5f6114a5838361148b565b60208301905092915050565b5f602082019050919050565b5f6114c782611462565b6114d1818561146c565b93506114dc8361147c565b805f5b8381101561150c5781516114f3888261149a565b97506114fe836114b1565b9250506001810190506114df565b5085935050505092915050565b5f6020820190508181035f83015261153181846114bd565b905092915050565b5f81519050919050565b5f82825260208201905092915050565b5f819050602082019050919050565b61156b816113cd565b82525050565b5f82825260208201905092915050565b5f61158b82611109565b6115958185611571565b93506115a5818560208601611123565b6115ae81611131565b840191505092915050565b6115c2816110ab565b82525050565b5f606083015f8301516115dd5f860182611562565b50602083015184820360208601526115f58282611581565b915050604083015161160a60408601826115b9565b508091505092915050565b5f61162083836115c8565b905092915050565b5f602082019050919050565b5f61163e82611539565b6116488185611543565b93508360208202850161165a85611553565b805f5b8581101561169557848403895281516116768582611615565b945061168183611628565b925060208a0199505060018101905061165d565b50829750879550505050505092915050565b5f6020820190508181035f8301526116bf8184611634565b905092915050565b6116d0816113cd565b82525050565b5f6060820190506116e95f8301866116c7565b81810360208301526116fb8185611141565b905061170a6040830184611251565b949350505050565b7f566f74696e6720706572696f6420686173206e6f7420737461727465640000005f82015250565b5f611746601d83611113565b915061175182611712565b602082019050919050565b5f6020820190508181035f8301526117738161173a565b9050919050565b7f596f75206861766520616c726561647920766f746564000000000000000000005f82015250565b5f6117ae601683611113565b91506117b98261177a565b602082019050919050565b5f6020820190508181035f8301526117db816117a2565b9050919050565b7f496e76616c6964206f7267616e697a6174696f6e2049440000000000000000005f82015250565b5f611816601783611113565b9150611821826117e2565b602082019050919050565b5f6020820190508181035f8301526118438161180a565b9050919050565b7f4e487b71000000000000000000000000000000000000000000000000000000005f52603260045260245ffd5b7f4e487b71000000000000000000000000000000000000000000000000000000005f52601160045260245ffd5b5f6118ae826110ab565b91506118b9836110ab565b92508282019050808211156118d1576118d0611877565b5b92915050565b7f4e487b71000000000000000000000000000000000000000000000000000000005f52602260045260245ffd5b5f600282049050600182168061191b57607f821691505b60208210810361192e5761192d6118d7565b5b50919050565b7f4f6e6c7920746865206d616e616765722063616e2064697374726962757465205f8201527f66756e6473000000000000000000000000000000000000000000000000000000602082015250565b5f61198e602583611113565b915061199982611934565b604082019050919050565b5f6020820190508181035f8301526119bb81611982565b9050919050565b7f446f6e6174696f6e20706572696f6420686173206e6f7420656e6465642079655f8201527f7400000000000000000000000000000000000000000000000000000000000000602082015250565b5f611a1c602183611113565b9150611a27826119c2565b604082019050919050565b5f6020820190508181035f830152611a4981611a10565b9050919050565b5f611a5a826110ab565b91507fffffffffffffffffffffffffffffffffffffffffffffffffffffffffffffffff8203611a8c57611a8b611877565b5b600182019050919050565b7f4e6f206f7267616e697a6174696f6e7320746f206469737472696275746520665f8201527f756e647320746f00000000000000000000000000000000000000000000000000602082015250565b5f611af1602783611113565b9150611afc82611a97565b604082019050919050565b5f6020820190508181035f830152611b1e81611ae5565b9050919050565b7f4e487b71000000000000000000000000000000000000000000000000000000005f52601260045260245ffd5b5f611b5c826110ab565b9150611b67836110ab565b925082611b7757611b76611b25565b5b828204905092915050565b7f4f6e6c7920746865206d616e616765722063616e20616464206f7267616e697a5f8201527f6174696f6e730000000000000000000000000000000000000000000000000000602082015250565b5f611bdc602683611113565b9150611be782611b82565b604082019050919050565b5f6020820190508181035f830152611c0981611bd0565b9050919050565b5f819050815f5260205f209050919050565b5f6020601f8301049050919050565b5f82821b905092915050565b5f60088302611c6c7fffffffffffffffffffffffffffffffffffffffffffffffffffffffffffffffff82611c31565b611c768683611c31565b95508019841693508086168417925050509392505050565b5f819050919050565b5f611cb1611cac611ca7846110ab565b611c8e565b6110ab565b9050919050565b5f819050919050565b611cca83611c97565b611cde611cd682611cb8565b848454611c3d565b825550505050565b5f90565b611cf2611ce6565b611cfd818484611cc1565b505050565b5b81811015611d2057611d155f82611cea565b600181019050611d03565b5050565b601f821115611d6557611d3681611c10565b611d3f84611c22565b81016020851015611d4e578190505b611d62611d5a85611c22565b830182611d02565b50505b505050565b5f82821c905092915050565b5f611d855f1984600802611d6a565b1980831691505092915050565b5f611d9d8383611d76565b9150826002028217905092915050565b611db682611109565b67ffffffffffffffff811115611dcf57611dce6112a9565b5b611dd98254611904565b611de4828285611d24565b5f60209050601f831160018114611e15575f8415611e03578287015190505b611e0d8582611d92565b865550611e74565b601f198416611e2386611c10565b5f5b82811015611e4a57848901518255600182019150602085019450602081019050611e25565b86831015611e675784890151611e63601f891682611d76565b8355505b6001600288020188555050505b505050505050565b7f446f6e6174696f6e20706572696f642068617320656e646564000000000000005f82015250565b5f611eb0601983611113565b9150611ebb82611e7c565b602082019050919050565b5f6020820190508181035f830152611edd81611ea4565b9050919050565b7f446f6e6174696f6e20616d6f756e74206d7573742062652067726561746572205f8201527f7468616e207a65726f0000000000000000000000000000000000000000000000602082015250565b5f611f3e602983611113565b9150611f4982611ee4565b604082019050919050565b5f6020820190508181035f830152611f6b81611f32565b905091905056fea26469706673582212202701f86d6d0d01462ba87269bba8b63ceba593cfe43bcacc1205020d4128d4dd64736f6c634300081a0033a26469706673582212204af721b9747a395a50eadf66f8e97bc9fbd5476a32e814bf2303273382166b3464736f6c634300081a0033",
			"opcodes": "PUSH1 0x80 PUSH1 0x40 MSTORE CALLVALUE DUP1 ISZERO PUSH1 0xE JUMPI PUSH0 DUP1 REVERT JUMPDEST POP PUSH2 0x3157 DUP1 PUSH2 0x1C PUSH0 CODECOPY PUSH0 RETURN INVALID PUSH1 0x80 PUSH1 0x40 MSTORE CALLVALUE DUP1 ISZERO PUSH2 0xF JUMPI PUSH0 DUP1 REVERT JUMPDEST POP PUSH1 0x4 CALLDATASIZE LT PUSH2 0x3F JUMPI PUSH0 CALLDATALOAD PUSH1 0xE0 SHR DUP1 PUSH4 0x1156D3E9 EQ PUSH2 0x43 JUMPI DUP1 PUSH4 0x94D3701E EQ PUSH2 0x74 JUMPI DUP1 PUSH4 0xC969EBDD EQ PUSH2 0x90 JUMPI JUMPDEST PUSH0 DUP1 REVERT JUMPDEST PUSH2 0x5D PUSH1 0x4 DUP1 CALLDATASIZE SUB DUP2 ADD SWAP1 PUSH2 0x58 SWAP2 SWAP1 PUSH2 0x3FC JUMP JUMPDEST PUSH2 0xAE JUMP JUMPDEST PUSH1 0x40 MLOAD PUSH2 0x6B SWAP3 SWAP2 SWAP1 PUSH2 0x4D6 JUMP JUMPDEST PUSH1 0x40 MLOAD DUP1 SWAP2 SUB SWAP1 RETURN JUMPDEST PUSH2 0x8E PUSH1 0x4 DUP1 CALLDATASIZE SUB DUP2 ADD SWAP1 PUSH2 0x89 SWAP2 SWAP1 PUSH2 0x630 JUMP JUMPDEST PUSH2 0x181 JUMP JUMPDEST STOP JUMPDEST PUSH2 0x98 PUSH2 0x26C JUMP JUMPDEST PUSH1 0x40 MLOAD PUSH2 0xA5 SWAP2 SWAP1 PUSH2 0x7D6 JUMP JUMPDEST PUSH1 0x40 MLOAD DUP1 SWAP2 SUB SWAP1 RETURN JUMPDEST PUSH0 DUP2 DUP2 SLOAD DUP2 LT PUSH2 0xBC JUMPI PUSH0 DUP1 REVERT JUMPDEST SWAP1 PUSH0 MSTORE PUSH1 0x20 PUSH0 KECCAK256 SWAP1 PUSH1 0x2 MUL ADD PUSH0 SWAP2 POP SWAP1 POP DUP1 PUSH0 ADD PUSH0 SWAP1 SLOAD SWAP1 PUSH2 0x100 EXP SWAP1 DIV PUSH20 0xFFFFFFFFFFFFFFFFFFFFFFFFFFFFFFFFFFFFFFFF AND SWAP1 DUP1 PUSH1 0x1 ADD DUP1 SLOAD PUSH2 0x100 SWAP1 PUSH2 0x823 JUMP JUMPDEST DUP1 PUSH1 0x1F ADD PUSH1 0x20 DUP1 SWAP2 DIV MUL PUSH1 0x20 ADD PUSH1 0x40 MLOAD SWAP1 DUP2 ADD PUSH1 0x40 MSTORE DUP1 SWAP3 SWAP2 SWAP1 DUP2 DUP2 MSTORE PUSH1 0x20 ADD DUP3 DUP1 SLOAD PUSH2 0x12C SWAP1 PUSH2 0x823 JUMP JUMPDEST DUP1 ISZERO PUSH2 0x177 JUMPI DUP1 PUSH1 0x1F LT PUSH2 0x14E JUMPI PUSH2 0x100 DUP1 DUP4 SLOAD DIV MUL DUP4 MSTORE SWAP2 PUSH1 0x20 ADD SWAP2 PUSH2 0x177 JUMP JUMPDEST DUP3 ADD SWAP2 SWAP1 PUSH0 MSTORE PUSH1 0x20 PUSH0 KECCAK256 SWAP1 JUMPDEST DUP2 SLOAD DUP2 MSTORE SWAP1 PUSH1 0x1 ADD SWAP1 PUSH1 0x20 ADD DUP1 DUP4 GT PUSH2 0x15A JUMPI DUP3 SWAP1 SUB PUSH1 0x1F AND DUP3 ADD SWAP2 JUMPDEST POP POP POP POP POP SWAP1 POP DUP3 JUMP JUMPDEST PUSH0 DUP3 CALLER DUP4 PUSH1 0x40 MLOAD PUSH2 0x191 SWAP1 PUSH2 0x3AB JUMP JUMPDEST PUSH2 0x19D SWAP4 SWAP3 SWAP2 SWAP1 PUSH2 0x862 JUMP JUMPDEST PUSH1 0x40 MLOAD DUP1 SWAP2 SUB SWAP1 PUSH0 CREATE DUP1 ISZERO DUP1 ISZERO PUSH2 0x1B6 JUMPI RETURNDATASIZE PUSH0 DUP1 RETURNDATACOPY RETURNDATASIZE PUSH0 REVERT JUMPDEST POP SWAP1 POP PUSH0 PUSH1 0x40 MLOAD DUP1 PUSH1 0x40 ADD PUSH1 0x40 MSTORE DUP1 DUP4 PUSH20 0xFFFFFFFFFFFFFFFFFFFFFFFFFFFFFFFFFFFFFFFF AND DUP2 MSTORE PUSH1 0x20 ADD DUP6 DUP2 MSTORE POP SWAP1 DUP1 PUSH1 0x1 DUP2 SLOAD ADD DUP1 DUP3 SSTORE DUP1 SWAP2 POP POP PUSH1 0x1 SWAP1 SUB SWAP1 PUSH0 MSTORE PUSH1 0x20 PUSH0 KECCAK256 SWAP1 PUSH1 0x2 MUL ADD PUSH0 SWAP1 SWAP2 SWAP1 SWAP2 SWAP1 SWAP2 POP PUSH0 DUP3 ADD MLOAD DUP2 PUSH0 ADD PUSH0 PUSH2 0x100 EXP DUP2 SLOAD DUP2 PUSH20 0xFFFFFFFFFFFFFFFFFFFFFFFFFFFFFFFFFFFFFFFF MUL NOT AND SWAP1 DUP4 PUSH20 0xFFFFFFFFFFFFFFFFFFFFFFFFFFFFFFFFFFFFFFFF AND MUL OR SWAP1 SSTORE POP PUSH1 0x20 DUP3 ADD MLOAD DUP2 PUSH1 0x1 ADD SWAP1 DUP2 PUSH2 0x264 SWAP2 SWAP1 PUSH2 0xA3B JUMP JUMPDEST POP POP POP POP POP POP JUMP JUMPDEST PUSH1 0x60 PUSH0 DUP1 SLOAD DUP1 PUSH1 0x20 MUL PUSH1 0x20 ADD PUSH1 0x40 MLOAD SWAP1 DUP2 ADD PUSH1 0x40 MSTORE DUP1 SWAP3 SWAP2 SWAP1 DUP2 DUP2 MSTORE PUSH1 0x20 ADD PUSH0 SWAP1 JUMPDEST DUP3 DUP3 LT ISZERO PUSH2 0x3A2 JUMPI DUP4 DUP3 SWAP1 PUSH0 MSTORE PUSH1 0x20 PUSH0 KECCAK256 SWAP1 PUSH1 0x2 MUL ADD PUSH1 0x40 MLOAD DUP1 PUSH1 0x40 ADD PUSH1 0x40 MSTORE SWAP1 DUP2 PUSH0 DUP3 ADD PUSH0 SWAP1 SLOAD SWAP1 PUSH2 0x100 EXP SWAP1 DIV PUSH20 0xFFFFFFFFFFFFFFFFFFFFFFFFFFFFFFFFFFFFFFFF AND PUSH20 0xFFFFFFFFFFFFFFFFFFFFFFFFFFFFFFFFFFFFFFFF AND PUSH20 0xFFFFFFFFFFFFFFFFFFFFFFFFFFFFFFFFFFFFFFFF AND DUP2 MSTORE PUSH1 0x20 ADD PUSH1 0x1 DUP3 ADD DUP1 SLOAD PUSH2 0x313 SWAP1 PUSH2 0x823 JUMP JUMPDEST DUP1 PUSH1 0x1F ADD PUSH1 0x20 DUP1 SWAP2 DIV MUL PUSH1 0x20 ADD PUSH1 0x40 MLOAD SWAP1 DUP2 ADD PUSH1 0x40 MSTORE DUP1 SWAP3 SWAP2 SWAP1 DUP2 DUP2 MSTORE PUSH1 0x20 ADD DUP3 DUP1 SLOAD PUSH2 0x33F SWAP1 PUSH2 0x823 JUMP JUMPDEST DUP1 ISZERO PUSH2 0x38A JUMPI DUP1 PUSH1 0x1F LT PUSH2 0x361 JUMPI PUSH2 0x100 DUP1 DUP4 SLOAD DIV MUL DUP4 MSTORE SWAP2 PUSH1 0x20 ADD SWAP2 PUSH2 0x38A JUMP JUMPDEST DUP3 ADD SWAP2 SWAP1 PUSH0 MSTORE PUSH1 0x20 PUSH0 KECCAK256 SWAP1 JUMPDEST DUP2 SLOAD DUP2 MSTORE SWAP1 PUSH1 0x1 ADD SWAP1 PUSH1 0x20 ADD DUP1 DUP4 GT PUSH2 0x36D JUMPI DUP3 SWAP1 SUB PUSH1 0x1F AND DUP3 ADD SWAP2 JUMPDEST POP POP POP POP POP DUP2 MSTORE POP POP DUP2 MSTORE PUSH1 0x20 ADD SWAP1 PUSH1 0x1 ADD SWAP1 PUSH2 0x28E JUMP JUMPDEST POP POP POP POP SWAP1 POP SWAP1 JUMP JUMPDEST PUSH2 0x2617 DUP1 PUSH2 0xB0B DUP4 CODECOPY ADD SWAP1 JUMP JUMPDEST PUSH0 PUSH1 0x40 MLOAD SWAP1 POP SWAP1 JUMP JUMPDEST PUSH0 DUP1 REVERT JUMPDEST PUSH0 DUP1 REVERT JUMPDEST PUSH0 DUP2 SWAP1 POP SWAP2 SWAP1 POP JUMP JUMPDEST PUSH2 0x3DB DUP2 PUSH2 0x3C9 JUMP JUMPDEST DUP2 EQ PUSH2 0x3E5 JUMPI PUSH0 DUP1 REVERT JUMPDEST POP JUMP JUMPDEST PUSH0 DUP2 CALLDATALOAD SWAP1 POP PUSH2 0x3F6 DUP2 PUSH2 0x3D2 JUMP JUMPDEST SWAP3 SWAP2 POP POP JUMP JUMPDEST PUSH0 PUSH1 0x20 DUP3 DUP5 SUB SLT ISZERO PUSH2 0x411 JUMPI PUSH2 0x410 PUSH2 0x3C1 JUMP JUMPDEST JUMPDEST PUSH0 PUSH2 0x41E DUP5 DUP3 DUP6 ADD PUSH2 0x3E8 JUMP JUMPDEST SWAP2 POP POP SWAP3 SWAP2 POP POP JUMP JUMPDEST PUSH0 PUSH20 0xFFFFFFFFFFFFFFFFFFFFFFFFFFFFFFFFFFFFFFFF DUP3 AND SWAP1 POP SWAP2 SWAP1 POP JUMP JUMPDEST PUSH0 PUSH2 0x450 DUP3 PUSH2 0x427 JUMP JUMPDEST SWAP1 POP SWAP2 SWAP1 POP JUMP JUMPDEST PUSH2 0x460 DUP2 PUSH2 0x446 JUMP JUMPDEST DUP3 MSTORE POP POP JUMP JUMPDEST PUSH0 DUP2 MLOAD SWAP1 POP SWAP2 SWAP1 POP JUMP JUMPDEST PUSH0 DUP3 DUP3 MSTORE PUSH1 0x20 DUP3 ADD SWAP1 POP SWAP3 SWAP2 POP POP JUMP JUMPDEST DUP3 DUP2 DUP4 MCOPY PUSH0 DUP4 DUP4 ADD MSTORE POP POP POP JUMP JUMPDEST PUSH0 PUSH1 0x1F NOT PUSH1 0x1F DUP4 ADD AND SWAP1 POP SWAP2 SWAP1 POP JUMP JUMPDEST PUSH0 PUSH2 0x4A8 DUP3 PUSH2 0x466 JUMP JUMPDEST PUSH2 0x4B2 DUP2 DUP6 PUSH2 0x470 JUMP JUMPDEST SWAP4 POP PUSH2 0x4C2 DUP2 DUP6 PUSH1 0x20 DUP7 ADD PUSH2 0x480 JUMP JUMPDEST PUSH2 0x4CB DUP2 PUSH2 0x48E JUMP JUMPDEST DUP5 ADD SWAP2 POP POP SWAP3 SWAP2 POP POP JUMP JUMPDEST PUSH0 PUSH1 0x40 DUP3 ADD SWAP1 POP PUSH2 0x4E9 PUSH0 DUP4 ADD DUP6 PUSH2 0x457 JUMP JUMPDEST DUP2 DUP2 SUB PUSH1 0x20 DUP4 ADD MSTORE PUSH2 0x4FB DUP2 DUP5 PUSH2 0x49E JUMP JUMPDEST SWAP1 POP SWAP4 SWAP3 POP POP POP JUMP JUMPDEST PUSH0 DUP1 REVERT JUMPDEST PUSH0 DUP1 REVERT JUMPDEST PUSH32 0x4E487B7100000000000000000000000000000000000000000000000000000000 PUSH0 MSTORE PUSH1 0x41 PUSH1 0x4 MSTORE PUSH1 0x24 PUSH0 REVERT JUMPDEST PUSH2 0x542 DUP3 PUSH2 0x48E JUMP JUMPDEST DUP2 ADD DUP2 DUP2 LT PUSH8 0xFFFFFFFFFFFFFFFF DUP3 GT OR ISZERO PUSH2 0x561 JUMPI PUSH2 0x560 PUSH2 0x50C JUMP JUMPDEST JUMPDEST DUP1 PUSH1 0x40 MSTORE POP POP POP JUMP JUMPDEST PUSH0 PUSH2 0x573 PUSH2 0x3B8 JUMP JUMPDEST SWAP1 POP PUSH2 0x57F DUP3 DUP3 PUSH2 0x539 JUMP JUMPDEST SWAP2 SWAP1 POP JUMP JUMPDEST PUSH0 PUSH8 0xFFFFFFFFFFFFFFFF DUP3 GT ISZERO PUSH2 0x59E JUMPI PUSH2 0x59D PUSH2 0x50C JUMP JUMPDEST JUMPDEST PUSH2 0x5A7 DUP3 PUSH2 0x48E JUMP JUMPDEST SWAP1 POP PUSH1 0x20 DUP2 ADD SWAP1 POP SWAP2 SWAP1 POP JUMP JUMPDEST DUP3 DUP2 DUP4 CALLDATACOPY PUSH0 DUP4 DUP4 ADD MSTORE POP POP POP JUMP JUMPDEST PUSH0 PUSH2 0x5D4 PUSH2 0x5CF DUP5 PUSH2 0x584 JUMP JUMPDEST PUSH2 0x56A JUMP JUMPDEST SWAP1 POP DUP3 DUP2 MSTORE PUSH1 0x20 DUP2 ADD DUP5 DUP5 DUP5 ADD GT ISZERO PUSH2 0x5F0 JUMPI PUSH2 0x5EF PUSH2 0x508 JUMP JUMPDEST JUMPDEST PUSH2 0x5FB DUP5 DUP3 DUP6 PUSH2 0x5B4 JUMP JUMPDEST POP SWAP4 SWAP3 POP POP POP JUMP JUMPDEST PUSH0 DUP3 PUSH1 0x1F DUP4 ADD SLT PUSH2 0x617 JUMPI PUSH2 0x616 PUSH2 0x504 JUMP JUMPDEST JUMPDEST DUP2 CALLDATALOAD PUSH2 0x627 DUP5 DUP3 PUSH1 0x20 DUP7 ADD PUSH2 0x5C2 JUMP JUMPDEST SWAP2 POP POP SWAP3 SWAP2 POP POP JUMP JUMPDEST PUSH0 DUP1 PUSH1 0x40 DUP4 DUP6 SUB SLT ISZERO PUSH2 0x646 JUMPI PUSH2 0x645 PUSH2 0x3C1 JUMP JUMPDEST JUMPDEST PUSH0 DUP4 ADD CALLDATALOAD PUSH8 0xFFFFFFFFFFFFFFFF DUP2 GT ISZERO PUSH2 0x663 JUMPI PUSH2 0x662 PUSH2 0x3C5 JUMP JUMPDEST JUMPDEST PUSH2 0x66F DUP6 DUP3 DUP7 ADD PUSH2 0x603 JUMP JUMPDEST SWAP3 POP POP PUSH1 0x20 PUSH2 0x680 DUP6 DUP3 DUP7 ADD PUSH2 0x3E8 JUMP JUMPDEST SWAP2 POP POP SWAP3 POP SWAP3 SWAP1 POP JUMP JUMPDEST PUSH0 DUP2 MLOAD SWAP1 POP SWAP2 SWAP1 POP JUMP JUMPDEST PUSH0 DUP3 DUP3 MSTORE PUSH1 0x20 DUP3 ADD SWAP1 POP SWAP3 SWAP2 POP POP JUMP JUMPDEST PUSH0 DUP2 SWAP1 POP PUSH1 0x20 DUP3 ADD SWAP1 POP SWAP2 SWAP1 POP JUMP JUMPDEST PUSH2 0x6BC DUP2 PUSH2 0x446 JUMP JUMPDEST DUP3 MSTORE POP POP JUMP JUMPDEST PUSH0 DUP3 DUP3 MSTORE PUSH1 0x20 DUP3 ADD SWAP1 POP SWAP3 SWAP2 POP POP JUMP JUMPDEST PUSH0 PUSH2 0x6DC DUP3 PUSH2 0x466 JUMP JUMPDEST PUSH2 0x6E6 DUP2 DUP6 PUSH2 0x6C2 JUMP JUMPDEST SWAP4 POP PUSH2 0x6F6 DUP2 DUP6 PUSH1 0x20 DUP7 ADD PUSH2 0x480 JUMP JUMPDEST PUSH2 0x6FF DUP2 PUSH2 0x48E JUMP JUMPDEST DUP5 ADD SWAP2 POP POP SWAP3 SWAP2 POP POP JUMP JUMPDEST PUSH0 PUSH1 0x40 DUP4 ADD PUSH0 DUP4 ADD MLOAD PUSH2 0x71F PUSH0 DUP7 ADD DUP3 PUSH2 0x6B3 JUMP JUMPDEST POP PUSH1 0x20 DUP4 ADD MLOAD DUP5 DUP3 SUB PUSH1 0x20 DUP7 ADD MSTORE PUSH2 0x737 DUP3 DUP3 PUSH2 0x6D2 JUMP JUMPDEST SWAP2 POP POP DUP1 SWAP2 POP POP SWAP3 SWAP2 POP POP JUMP JUMPDEST PUSH0 PUSH2 0x74F DUP4 DUP4 PUSH2 0x70A JUMP JUMPDEST SWAP1 POP SWAP3 SWAP2 POP POP JUMP JUMPDEST PUSH0 PUSH1 0x20 DUP3 ADD SWAP1 POP SWAP2 SWAP1 POP JUMP JUMPDEST PUSH0 PUSH2 0x76D DUP3 PUSH2 0x68A JUMP JUMPDEST PUSH2 0x777 DUP2 DUP6 PUSH2 0x694 JUMP JUMPDEST SWAP4 POP DUP4 PUSH1 0x20 DUP3 MUL DUP6 ADD PUSH2 0x789 DUP6 PUSH2 0x6A4 JUMP JUMPDEST DUP1 PUSH0 JUMPDEST DUP6 DUP2 LT ISZERO PUSH2 0x7C4 JUMPI DUP5 DUP5 SUB DUP10 MSTORE DUP2 MLOAD PUSH2 0x7A5 DUP6 DUP3 PUSH2 0x744 JUMP JUMPDEST SWAP5 POP PUSH2 0x7B0 DUP4 PUSH2 0x757 JUMP JUMPDEST SWAP3 POP PUSH1 0x20 DUP11 ADD SWAP10 POP POP PUSH1 0x1 DUP2 ADD SWAP1 POP PUSH2 0x78C JUMP JUMPDEST POP DUP3 SWAP8 POP DUP8 SWAP6 POP POP POP POP POP POP SWAP3 SWAP2 POP POP JUMP JUMPDEST PUSH0 PUSH1 0x20 DUP3 ADD SWAP1 POP DUP2 DUP2 SUB PUSH0 DUP4 ADD MSTORE PUSH2 0x7EE DUP2 DUP5 PUSH2 0x763 JUMP JUMPDEST SWAP1 POP SWAP3 SWAP2 POP POP JUMP JUMPDEST PUSH32 0x4E487B7100000000000000000000000000000000000000000000000000000000 PUSH0 MSTORE PUSH1 0x22 PUSH1 0x4 MSTORE PUSH1 0x24 PUSH0 REVERT JUMPDEST PUSH0 PUSH1 0x2 DUP3 DIV SWAP1 POP PUSH1 0x1 DUP3 AND DUP1 PUSH2 0x83A JUMPI PUSH1 0x7F DUP3 AND SWAP2 POP JUMPDEST PUSH1 0x20 DUP3 LT DUP2 SUB PUSH2 0x84D JUMPI PUSH2 0x84C PUSH2 0x7F6 JUMP JUMPDEST JUMPDEST POP SWAP2 SWAP1 POP JUMP JUMPDEST PUSH2 0x85C DUP2 PUSH2 0x3C9 JUMP JUMPDEST DUP3 MSTORE POP POP JUMP JUMPDEST PUSH0 PUSH1 0x60 DUP3 ADD SWAP1 POP DUP2 DUP2 SUB PUSH0 DUP4 ADD MSTORE PUSH2 0x87A DUP2 DUP7 PUSH2 0x49E JUMP JUMPDEST SWAP1 POP PUSH2 0x889 PUSH1 0x20 DUP4 ADD DUP6 PUSH2 0x457 JUMP JUMPDEST PUSH2 0x896 PUSH1 0x40 DUP4 ADD DUP5 PUSH2 0x853 JUMP JUMPDEST SWAP5 SWAP4 POP POP POP POP JUMP JUMPDEST PUSH0 DUP2 SWAP1 POP DUP2 PUSH0 MSTORE PUSH1 0x20 PUSH0 KECCAK256 SWAP1 POP SWAP2 SWAP1 POP JUMP JUMPDEST PUSH0 PUSH1 0x20 PUSH1 0x1F DUP4 ADD DIV SWAP1 POP SWAP2 SWAP1 POP JUMP JUMPDEST PUSH0 DUP3 DUP3 SHL SWAP1 POP SWAP3 SWAP2 POP POP JUMP JUMPDEST PUSH0 PUSH1 0x8 DUP4 MUL PUSH2 0x8FA PUSH32 0xFFFFFFFFFFFFFFFFFFFFFFFFFFFFFFFFFFFFFFFFFFFFFFFFFFFFFFFFFFFFFFFF DUP3 PUSH2 0x8BF JUMP JUMPDEST PUSH2 0x904 DUP7 DUP4 PUSH2 0x8BF JUMP JUMPDEST SWAP6 POP DUP1 NOT DUP5 AND SWAP4 POP DUP1 DUP7 AND DUP5 OR SWAP3 POP POP POP SWAP4 SWAP3 POP POP POP JUMP JUMPDEST PUSH0 DUP2 SWAP1 POP SWAP2 SWAP1 POP JUMP JUMPDEST PUSH0 PUSH2 0x93F PUSH2 0x93A PUSH2 0x935 DUP5 PUSH2 0x3C9 JUMP JUMPDEST PUSH2 0x91C JUMP JUMPDEST PUSH2 0x3C9 JUMP JUMPDEST SWAP1 POP SWAP2 SWAP1 POP JUMP JUMPDEST PUSH0 DUP2 SWAP1 POP SWAP2 SWAP1 POP JUMP JUMPDEST PUSH2 0x958 DUP4 PUSH2 0x925 JUMP JUMPDEST PUSH2 0x96C PUSH2 0x964 DUP3 PUSH2 0x946 JUMP JUMPDEST DUP5 DUP5 SLOAD PUSH2 0x8CB JUMP JUMPDEST DUP3 SSTORE POP POP POP POP JUMP JUMPDEST PUSH0 SWAP1 JUMP JUMPDEST PUSH2 0x980 PUSH2 0x974 JUMP JUMPDEST PUSH2 0x98B DUP2 DUP5 DUP5 PUSH2 0x94F JUMP JUMPDEST POP POP POP JUMP JUMPDEST JUMPDEST DUP2 DUP2 LT ISZERO PUSH2 0x9AE JUMPI PUSH2 0x9A3 PUSH0 DUP3 PUSH2 0x978 JUMP JUMPDEST PUSH1 0x1 DUP2 ADD SWAP1 POP PUSH2 0x991 JUMP JUMPDEST POP POP JUMP JUMPDEST PUSH1 0x1F DUP3 GT ISZERO PUSH2 0x9F3 JUMPI PUSH2 0x9C4 DUP2 PUSH2 0x89E JUMP JUMPDEST PUSH2 0x9CD DUP5 PUSH2 0x8B0 JUMP JUMPDEST DUP2 ADD PUSH1 0x20 DUP6 LT ISZERO PUSH2 0x9DC JUMPI DUP2 SWAP1 POP JUMPDEST PUSH2 0x9F0 PUSH2 0x9E8 DUP6 PUSH2 0x8B0 JUMP JUMPDEST DUP4 ADD DUP3 PUSH2 0x990 JUMP JUMPDEST POP POP JUMPDEST POP POP POP JUMP JUMPDEST PUSH0 DUP3 DUP3 SHR SWAP1 POP SWAP3 SWAP2 POP POP JUMP JUMPDEST PUSH0 PUSH2 0xA13 PUSH0 NOT DUP5 PUSH1 0x8 MUL PUSH2 0x9F8 JUMP JUMPDEST NOT DUP1 DUP4 AND SWAP2 POP POP SWAP3 SWAP2 POP POP JUMP JUMPDEST PUSH0 PUSH2 0xA2B DUP4 DUP4 PUSH2 0xA04 JUMP JUMPDEST SWAP2 POP DUP3 PUSH1 0x2 MUL DUP3 OR SWAP1 POP SWAP3 SWAP2 POP POP JUMP JUMPDEST PUSH2 0xA44 DUP3 PUSH2 0x466 JUMP JUMPDEST PUSH8 0xFFFFFFFFFFFFFFFF DUP2 GT ISZERO PUSH2 0xA5D JUMPI PUSH2 0xA5C PUSH2 0x50C JUMP JUMPDEST JUMPDEST PUSH2 0xA67 DUP3 SLOAD PUSH2 0x823 JUMP JUMPDEST PUSH2 0xA72 DUP3 DUP3 DUP6 PUSH2 0x9B2 JUMP JUMPDEST PUSH0 PUSH1 0x20 SWAP1 POP PUSH1 0x1F DUP4 GT PUSH1 0x1 DUP2 EQ PUSH2 0xAA3 JUMPI PUSH0 DUP5 ISZERO PUSH2 0xA91 JUMPI DUP3 DUP8 ADD MLOAD SWAP1 POP JUMPDEST PUSH2 0xA9B DUP6 DUP3 PUSH2 0xA20 JUMP JUMPDEST DUP7 SSTORE POP PUSH2 0xB02 JUMP JUMPDEST PUSH1 0x1F NOT DUP5 AND PUSH2 0xAB1 DUP7 PUSH2 0x89E JUMP JUMPDEST PUSH0 JUMPDEST DUP3 DUP2 LT ISZERO PUSH2 0xAD8 JUMPI DUP5 DUP10 ADD MLOAD DUP3 SSTORE PUSH1 0x1 DUP3 ADD SWAP2 POP PUSH1 0x20 DUP6 ADD SWAP5 POP PUSH1 0x20 DUP2 ADD SWAP1 POP PUSH2 0xAB3 JUMP JUMPDEST DUP7 DUP4 LT ISZERO PUSH2 0xAF5 JUMPI DUP5 DUP10 ADD MLOAD PUSH2 0xAF1 PUSH1 0x1F DUP10 AND DUP3 PUSH2 0xA04 JUMP JUMPDEST DUP4 SSTORE POP JUMPDEST PUSH1 0x1 PUSH1 0x2 DUP9 MUL ADD DUP9 SSTORE POP POP POP JUMPDEST POP POP POP POP POP POP JUMP INVALID PUSH1 0x80 PUSH1 0x40 MSTORE CALLVALUE DUP1 ISZERO PUSH2 0xF JUMPI PUSH0 DUP1 REVERT JUMPDEST POP PUSH1 0x40 MLOAD PUSH2 0x2617 CODESIZE SUB DUP1 PUSH2 0x2617 DUP4 CODECOPY DUP2 DUP2 ADD PUSH1 0x40 MSTORE DUP2 ADD SWAP1 PUSH2 0x31 SWAP2 SWAP1 PUSH2 0x282 JUMP JUMPDEST DUP3 PUSH0 SWAP1 DUP2 PUSH2 0x3F SWAP2 SWAP1 PUSH2 0x4F2 JUMP JUMPDEST POP DUP2 PUSH1 0x1 PUSH0 PUSH2 0x100 EXP DUP2 SLOAD DUP2 PUSH20 0xFFFFFFFFFFFFFFFFFFFFFFFFFFFFFFFFFFFFFFFF MUL NOT AND SWAP1 DUP4 PUSH20 0xFFFFFFFFFFFFFFFFFFFFFFFFFFFFFFFFFFFFFFFF AND MUL OR SWAP1 SSTORE POP PUSH3 0x15180 DUP2 PUSH2 0x8F SWAP2 SWAP1 PUSH2 0x5EE JUMP JUMPDEST TIMESTAMP PUSH2 0x9A SWAP2 SWAP1 PUSH2 0x62F JUMP JUMPDEST PUSH1 0x2 DUP2 SWAP1 SSTORE POP POP POP POP PUSH2 0x662 JUMP JUMPDEST PUSH0 PUSH1 0x40 MLOAD SWAP1 POP SWAP1 JUMP JUMPDEST PUSH0 DUP1 REVERT JUMPDEST PUSH0 DUP1 REVERT JUMPDEST PUSH0 DUP1 REVERT JUMPDEST PUSH0 DUP1 REVERT JUMPDEST PUSH0 PUSH1 0x1F NOT PUSH1 0x1F DUP4 ADD AND SWAP1 POP SWAP2 SWAP1 POP JUMP JUMPDEST PUSH32 0x4E487B7100000000000000000000000000000000000000000000000000000000 PUSH0 MSTORE PUSH1 0x41 PUSH1 0x4 MSTORE PUSH1 0x24 PUSH0 REVERT JUMPDEST PUSH2 0x107 DUP3 PUSH2 0xC1 JUMP JUMPDEST DUP2 ADD DUP2 DUP2 LT PUSH8 0xFFFFFFFFFFFFFFFF DUP3 GT OR ISZERO PUSH2 0x126 JUMPI PUSH2 0x125 PUSH2 0xD1 JUMP JUMPDEST JUMPDEST DUP1 PUSH1 0x40 MSTORE POP POP POP JUMP JUMPDEST PUSH0 PUSH2 0x138 PUSH2 0xA8 JUMP JUMPDEST SWAP1 POP PUSH2 0x144 DUP3 DUP3 PUSH2 0xFE JUMP JUMPDEST SWAP2 SWAP1 POP JUMP JUMPDEST PUSH0 PUSH8 0xFFFFFFFFFFFFFFFF DUP3 GT ISZERO PUSH2 0x163 JUMPI PUSH2 0x162 PUSH2 0xD1 JUMP JUMPDEST JUMPDEST PUSH2 0x16C DUP3 PUSH2 0xC1 JUMP JUMPDEST SWAP1 POP PUSH1 0x20 DUP2 ADD SWAP1 POP SWAP2 SWAP1 POP JUMP JUMPDEST DUP3 DUP2 DUP4 MCOPY PUSH0 DUP4 DUP4 ADD MSTORE POP POP POP JUMP JUMPDEST PUSH0 PUSH2 0x199 PUSH2 0x194 DUP5 PUSH2 0x149 JUMP JUMPDEST PUSH2 0x12F JUMP JUMPDEST SWAP1 POP DUP3 DUP2 MSTORE PUSH1 0x20 DUP2 ADD DUP5 DUP5 DUP5 ADD GT ISZERO PUSH2 0x1B5 JUMPI PUSH2 0x1B4 PUSH2 0xBD JUMP JUMPDEST JUMPDEST PUSH2 0x1C0 DUP5 DUP3 DUP6 PUSH2 0x179 JUMP JUMPDEST POP SWAP4 SWAP3 POP POP POP JUMP JUMPDEST PUSH0 DUP3 PUSH1 0x1F DUP4 ADD SLT PUSH2 0x1DC JUMPI PUSH2 0x1DB PUSH2 0xB9 JUMP JUMPDEST JUMPDEST DUP2 MLOAD PUSH2 0x1EC DUP5 DUP3 PUSH1 0x20 DUP7 ADD PUSH2 0x187 JUMP JUMPDEST SWAP2 POP POP SWAP3 SWAP2 POP POP JUMP JUMPDEST PUSH0 PUSH20 0xFFFFFFFFFFFFFFFFFFFFFFFFFFFFFFFFFFFFFFFF DUP3 AND SWAP1 POP SWAP2 SWAP1 POP JUMP JUMPDEST PUSH0 PUSH2 0x21E DUP3 PUSH2 0x1F5 JUMP JUMPDEST SWAP1 POP SWAP2 SWAP1 POP JUMP JUMPDEST PUSH2 0x22E DUP2 PUSH2 0x214 JUMP JUMPDEST DUP2 EQ PUSH2 0x238 JUMPI PUSH0 DUP1 REVERT JUMPDEST POP JUMP JUMPDEST PUSH0 DUP2 MLOAD SWAP1 POP PUSH2 0x249 DUP2 PUSH2 0x225 JUMP JUMPDEST SWAP3 SWAP2 POP POP JUMP JUMPDEST PUSH0 DUP2 SWAP1 POP SWAP2 SWAP1 POP JUMP JUMPDEST PUSH2 0x261 DUP2 PUSH2 0x24F JUMP JUMPDEST DUP2 EQ PUSH2 0x26B JUMPI PUSH0 DUP1 REVERT JUMPDEST POP JUMP JUMPDEST PUSH0 DUP2 MLOAD SWAP1 POP PUSH2 0x27C DUP2 PUSH2 0x258 JUMP JUMPDEST SWAP3 SWAP2 POP POP JUMP JUMPDEST PUSH0 DUP1 PUSH0 PUSH1 0x60 DUP5 DUP7 SUB SLT ISZERO PUSH2 0x299 JUMPI PUSH2 0x298 PUSH2 0xB1 JUMP JUMPDEST JUMPDEST PUSH0 DUP5 ADD MLOAD PUSH8 0xFFFFFFFFFFFFFFFF DUP2 GT ISZERO PUSH2 0x2B6 JUMPI PUSH2 0x2B5 PUSH2 0xB5 JUMP JUMPDEST JUMPDEST PUSH2 0x2C2 DUP7 DUP3 DUP8 ADD PUSH2 0x1C8 JUMP JUMPDEST SWAP4 POP POP PUSH1 0x20 PUSH2 0x2D3 DUP7 DUP3 DUP8 ADD PUSH2 0x23B JUMP JUMPDEST SWAP3 POP POP PUSH1 0x40 PUSH2 0x2E4 DUP7 DUP3 DUP8 ADD PUSH2 0x26E JUMP JUMPDEST SWAP2 POP POP SWAP3 POP SWAP3 POP SWAP3 JUMP JUMPDEST PUSH0 DUP2 MLOAD SWAP1 POP SWAP2 SWAP1 POP JUMP JUMPDEST PUSH32 0x4E487B7100000000000000000000000000000000000000000000000000000000 PUSH0 MSTORE PUSH1 0x22 PUSH1 0x4 MSTORE PUSH1 0x24 PUSH0 REVERT JUMPDEST PUSH0 PUSH1 0x2 DUP3 DIV SWAP1 POP PUSH1 0x1 DUP3 AND DUP1 PUSH2 0x33C JUMPI PUSH1 0x7F DUP3 AND SWAP2 POP JUMPDEST PUSH1 0x20 DUP3 LT DUP2 SUB PUSH2 0x34F JUMPI PUSH2 0x34E PUSH2 0x2F8 JUMP JUMPDEST JUMPDEST POP SWAP2 SWAP1 POP JUMP JUMPDEST PUSH0 DUP2 SWAP1 POP DUP2 PUSH0 MSTORE PUSH1 0x20 PUSH0 KECCAK256 SWAP1 POP SWAP2 SWAP1 POP JUMP JUMPDEST PUSH0 PUSH1 0x20 PUSH1 0x1F DUP4 ADD DIV SWAP1 POP SWAP2 SWAP1 POP JUMP JUMPDEST PUSH0 DUP3 DUP3 SHL SWAP1 POP SWAP3 SWAP2 POP POP JUMP JUMPDEST PUSH0 PUSH1 0x8 DUP4 MUL PUSH2 0x3B1 PUSH32 0xFFFFFFFFFFFFFFFFFFFFFFFFFFFFFFFFFFFFFFFFFFFFFFFFFFFFFFFFFFFFFFFF DUP3 PUSH2 0x376 JUMP JUMPDEST PUSH2 0x3BB DUP7 DUP4 PUSH2 0x376 JUMP JUMPDEST SWAP6 POP DUP1 NOT DUP5 AND SWAP4 POP DUP1 DUP7 AND DUP5 OR SWAP3 POP POP POP SWAP4 SWAP3 POP POP POP JUMP JUMPDEST PUSH0 DUP2 SWAP1 POP SWAP2 SWAP1 POP JUMP JUMPDEST PUSH0 PUSH2 0x3F6 PUSH2 0x3F1 PUSH2 0x3EC DUP5 PUSH2 0x24F JUMP JUMPDEST PUSH2 0x3D3 JUMP JUMPDEST PUSH2 0x24F JUMP JUMPDEST SWAP1 POP SWAP2 SWAP1 POP JUMP JUMPDEST PUSH0 DUP2 SWAP1 POP SWAP2 SWAP1 POP JUMP JUMPDEST PUSH2 0x40F DUP4 PUSH2 0x3DC JUMP JUMPDEST PUSH2 0x423 PUSH2 0x41B DUP3 PUSH2 0x3FD JUMP JUMPDEST DUP5 DUP5 SLOAD PUSH2 0x382 JUMP JUMPDEST DUP3 SSTORE POP POP POP POP JUMP JUMPDEST PUSH0 SWAP1 JUMP JUMPDEST PUSH2 0x437 PUSH2 0x42B JUMP JUMPDEST PUSH2 0x442 DUP2 DUP5 DUP5 PUSH2 0x406 JUMP JUMPDEST POP POP POP JUMP JUMPDEST JUMPDEST DUP2 DUP2 LT ISZERO PUSH2 0x465 JUMPI PUSH2 0x45A PUSH0 DUP3 PUSH2 0x42F JUMP JUMPDEST PUSH1 0x1 DUP2 ADD SWAP1 POP PUSH2 0x448 JUMP JUMPDEST POP POP JUMP JUMPDEST PUSH1 0x1F DUP3 GT ISZERO PUSH2 0x4AA JUMPI PUSH2 0x47B DUP2 PUSH2 0x355 JUMP JUMPDEST PUSH2 0x484 DUP5 PUSH2 0x367 JUMP JUMPDEST DUP2 ADD PUSH1 0x20 DUP6 LT ISZERO PUSH2 0x493 JUMPI DUP2 SWAP1 POP JUMPDEST PUSH2 0x4A7 PUSH2 0x49F DUP6 PUSH2 0x367 JUMP JUMPDEST DUP4 ADD DUP3 PUSH2 0x447 JUMP JUMPDEST POP POP JUMPDEST POP POP POP JUMP JUMPDEST PUSH0 DUP3 DUP3 SHR SWAP1 POP SWAP3 SWAP2 POP POP JUMP JUMPDEST PUSH0 PUSH2 0x4CA PUSH0 NOT DUP5 PUSH1 0x8 MUL PUSH2 0x4AF JUMP JUMPDEST NOT DUP1 DUP4 AND SWAP2 POP POP SWAP3 SWAP2 POP POP JUMP JUMPDEST PUSH0 PUSH2 0x4E2 DUP4 DUP4 PUSH2 0x4BB JUMP JUMPDEST SWAP2 POP DUP3 PUSH1 0x2 MUL DUP3 OR SWAP1 POP SWAP3 SWAP2 POP POP JUMP JUMPDEST PUSH2 0x4FB DUP3 PUSH2 0x2EE JUMP JUMPDEST PUSH8 0xFFFFFFFFFFFFFFFF DUP2 GT ISZERO PUSH2 0x514 JUMPI PUSH2 0x513 PUSH2 0xD1 JUMP JUMPDEST JUMPDEST PUSH2 0x51E DUP3 SLOAD PUSH2 0x325 JUMP JUMPDEST PUSH2 0x529 DUP3 DUP3 DUP6 PUSH2 0x469 JUMP JUMPDEST PUSH0 PUSH1 0x20 SWAP1 POP PUSH1 0x1F DUP4 GT PUSH1 0x1 DUP2 EQ PUSH2 0x55A JUMPI PUSH0 DUP5 ISZERO PUSH2 0x548 JUMPI DUP3 DUP8 ADD MLOAD SWAP1 POP JUMPDEST PUSH2 0x552 DUP6 DUP3 PUSH2 0x4D7 JUMP JUMPDEST DUP7 SSTORE POP PUSH2 0x5B9 JUMP JUMPDEST PUSH1 0x1F NOT DUP5 AND PUSH2 0x568 DUP7 PUSH2 0x355 JUMP JUMPDEST PUSH0 JUMPDEST DUP3 DUP2 LT ISZERO PUSH2 0x58F JUMPI DUP5 DUP10 ADD MLOAD DUP3 SSTORE PUSH1 0x1 DUP3 ADD SWAP2 POP PUSH1 0x20 DUP6 ADD SWAP5 POP PUSH1 0x20 DUP2 ADD SWAP1 POP PUSH2 0x56A JUMP JUMPDEST DUP7 DUP4 LT ISZERO PUSH2 0x5AC JUMPI DUP5 DUP10 ADD MLOAD PUSH2 0x5A8 PUSH1 0x1F DUP10 AND DUP3 PUSH2 0x4BB JUMP JUMPDEST DUP4 SSTORE POP JUMPDEST PUSH1 0x1 PUSH1 0x2 DUP9 MUL ADD DUP9 SSTORE POP POP POP JUMPDEST POP POP POP POP POP POP JUMP JUMPDEST PUSH32 0x4E487B7100000000000000000000000000000000000000000000000000000000 PUSH0 MSTORE PUSH1 0x11 PUSH1 0x4 MSTORE PUSH1 0x24 PUSH0 REVERT JUMPDEST PUSH0 PUSH2 0x5F8 DUP3 PUSH2 0x24F JUMP JUMPDEST SWAP2 POP PUSH2 0x603 DUP4 PUSH2 0x24F JUMP JUMPDEST SWAP3 POP DUP3 DUP3 MUL PUSH2 0x611 DUP2 PUSH2 0x24F JUMP JUMPDEST SWAP2 POP DUP3 DUP3 DIV DUP5 EQ DUP4 ISZERO OR PUSH2 0x628 JUMPI PUSH2 0x627 PUSH2 0x5C1 JUMP JUMPDEST JUMPDEST POP SWAP3 SWAP2 POP POP JUMP JUMPDEST PUSH0 PUSH2 0x639 DUP3 PUSH2 0x24F JUMP JUMPDEST SWAP2 POP PUSH2 0x644 DUP4 PUSH2 0x24F JUMP JUMPDEST SWAP3 POP DUP3 DUP3 ADD SWAP1 POP DUP1 DUP3 GT ISZERO PUSH2 0x65C JUMPI PUSH2 0x65B PUSH2 0x5C1 JUMP JUMPDEST JUMPDEST SWAP3 SWAP2 POP POP JUMP JUMPDEST PUSH2 0x1FA8 DUP1 PUSH2 0x66F PUSH0 CODECOPY PUSH0 RETURN INVALID PUSH1 0x80 PUSH1 0x40 MSTORE PUSH1 0x4 CALLDATASIZE LT PUSH2 0xE7 JUMPI PUSH0 CALLDATALOAD PUSH1 0xE0 SHR DUP1 PUSH4 0x9475C163 GT PUSH2 0x89 JUMPI DUP1 PUSH4 0xCC6CB19A GT PUSH2 0x58 JUMPI DUP1 PUSH4 0xCC6CB19A EQ PUSH2 0x2B7 JUMPI DUP1 PUSH4 0xDE2ED893 EQ PUSH2 0x2F3 JUMPI DUP1 PUSH4 0xE792DD8A EQ PUSH2 0x31D JUMPI DUP1 PUSH4 0xED88C68E EQ PUSH2 0x35B JUMPI PUSH2 0xE7 JUMP JUMPDEST DUP1 PUSH4 0x9475C163 EQ PUSH2 0x21F JUMPI DUP1 PUSH4 0x96F300D4 EQ PUSH2 0x247 JUMPI DUP1 PUSH4 0x9754A3A8 EQ PUSH2 0x271 JUMPI DUP1 PUSH4 0xB6E7EFF1 EQ PUSH2 0x29B JUMPI PUSH2 0xE7 JUMP JUMPDEST DUP1 PUSH4 0x29DCB0CF GT PUSH2 0xC5 JUMPI DUP1 PUSH4 0x29DCB0CF EQ PUSH2 0x179 JUMPI DUP1 PUSH4 0x3A6A4D2E EQ PUSH2 0x1A3 JUMPI DUP1 PUSH4 0x481C6A75 EQ PUSH2 0x1B9 JUMPI DUP1 PUSH4 0x4ABFA163 EQ PUSH2 0x1E3 JUMPI PUSH2 0xE7 JUMP JUMPDEST DUP1 PUSH4 0x121B93F EQ PUSH2 0xEB JUMPI DUP1 PUSH4 0x6FDDE03 EQ PUSH2 0x113 JUMPI DUP1 PUSH4 0x9EEF43E EQ PUSH2 0x13D JUMPI JUMPDEST PUSH0 DUP1 REVERT JUMPDEST CALLVALUE DUP1 ISZERO PUSH2 0xF6 JUMPI PUSH0 DUP1 REVERT JUMPDEST POP PUSH2 0x111 PUSH1 0x4 DUP1 CALLDATASIZE SUB DUP2 ADD SWAP1 PUSH2 0x10C SWAP2 SWAP1 PUSH2 0x10DE JUMP JUMPDEST PUSH2 0x365 JUMP JUMPDEST STOP JUMPDEST CALLVALUE DUP1 ISZERO PUSH2 0x11E JUMPI PUSH0 DUP1 REVERT JUMPDEST POP PUSH2 0x127 PUSH2 0x550 JUMP JUMPDEST PUSH1 0x40 MLOAD PUSH2 0x134 SWAP2 SWAP1 PUSH2 0x1179 JUMP JUMPDEST PUSH1 0x40 MLOAD DUP1 SWAP2 SUB SWAP1 RETURN JUMPDEST CALLVALUE DUP1 ISZERO PUSH2 0x148 JUMPI PUSH0 DUP1 REVERT JUMPDEST POP PUSH2 0x163 PUSH1 0x4 DUP1 CALLDATASIZE SUB DUP2 ADD SWAP1 PUSH2 0x15E SWAP2 SWAP1 PUSH2 0x11F3 JUMP JUMPDEST PUSH2 0x5DB JUMP JUMPDEST PUSH1 0x40 MLOAD PUSH2 0x170 SWAP2 SWAP1 PUSH2 0x1238 JUMP JUMPDEST PUSH1 0x40 MLOAD DUP1 SWAP2 SUB SWAP1 RETURN JUMPDEST CALLVALUE DUP1 ISZERO PUSH2 0x184 JUMPI PUSH0 DUP1 REVERT JUMPDEST POP PUSH2 0x18D PUSH2 0x5F8 JUMP JUMPDEST PUSH1 0x40 MLOAD PUSH2 0x19A SWAP2 SWAP1 PUSH2 0x1260 JUMP JUMPDEST PUSH1 0x40 MLOAD DUP1 SWAP2 SUB SWAP1 RETURN JUMPDEST CALLVALUE DUP1 ISZERO PUSH2 0x1AE JUMPI PUSH0 DUP1 REVERT JUMPDEST POP PUSH2 0x1B7 PUSH2 0x5FE JUMP JUMPDEST STOP JUMPDEST CALLVALUE DUP1 ISZERO PUSH2 0x1C4 JUMPI PUSH0 DUP1 REVERT JUMPDEST POP PUSH2 0x1CD PUSH2 0x969 JUMP JUMPDEST PUSH1 0x40 MLOAD PUSH2 0x1DA SWAP2 SWAP1 PUSH2 0x1288 JUMP JUMPDEST PUSH1 0x40 MLOAD DUP1 SWAP2 SUB SWAP1 RETURN JUMPDEST CALLVALUE DUP1 ISZERO PUSH2 0x1EE JUMPI PUSH0 DUP1 REVERT JUMPDEST POP PUSH2 0x209 PUSH1 0x4 DUP1 CALLDATASIZE SUB DUP2 ADD SWAP1 PUSH2 0x204 SWAP2 SWAP1 PUSH2 0x10DE JUMP JUMPDEST PUSH2 0x98E JUMP JUMPDEST PUSH1 0x40 MLOAD PUSH2 0x216 SWAP2 SWAP1 PUSH2 0x1288 JUMP JUMPDEST PUSH1 0x40 MLOAD DUP1 SWAP2 SUB SWAP1 RETURN JUMPDEST CALLVALUE DUP1 ISZERO PUSH2 0x22A JUMPI PUSH0 DUP1 REVERT JUMPDEST POP PUSH2 0x245 PUSH1 0x4 DUP1 CALLDATASIZE SUB DUP2 ADD SWAP1 PUSH2 0x240 SWAP2 SWAP1 PUSH2 0x1408 JUMP JUMPDEST PUSH2 0x9C9 JUMP JUMPDEST STOP JUMPDEST CALLVALUE DUP1 ISZERO PUSH2 0x252 JUMPI PUSH0 DUP1 REVERT JUMPDEST POP PUSH2 0x25B PUSH2 0xB1B JUMP JUMPDEST PUSH1 0x40 MLOAD PUSH2 0x268 SWAP2 SWAP1 PUSH2 0x1519 JUMP JUMPDEST PUSH1 0x40 MLOAD DUP1 SWAP2 SUB SWAP1 RETURN JUMPDEST CALLVALUE DUP1 ISZERO PUSH2 0x27C JUMPI PUSH0 DUP1 REVERT JUMPDEST POP PUSH2 0x285 PUSH2 0xBA6 JUMP JUMPDEST PUSH1 0x40 MLOAD PUSH2 0x292 SWAP2 SWAP1 PUSH2 0x16A7 JUMP JUMPDEST PUSH1 0x40 MLOAD DUP1 SWAP2 SUB SWAP1 RETURN JUMPDEST PUSH2 0x2B5 PUSH1 0x4 DUP1 CALLDATASIZE SUB DUP2 ADD SWAP1 PUSH2 0x2B0 SWAP2 SWAP1 PUSH2 0x10DE JUMP JUMPDEST PUSH2 0xCF0 JUMP JUMPDEST STOP JUMPDEST CALLVALUE DUP1 ISZERO PUSH2 0x2C2 JUMPI PUSH0 DUP1 REVERT JUMPDEST POP PUSH2 0x2DD PUSH1 0x4 DUP1 CALLDATASIZE SUB DUP2 ADD SWAP1 PUSH2 0x2D8 SWAP2 SWAP1 PUSH2 0x11F3 JUMP JUMPDEST PUSH2 0xDBF JUMP JUMPDEST PUSH1 0x40 MLOAD PUSH2 0x2EA SWAP2 SWAP1 PUSH2 0x1260 JUMP JUMPDEST PUSH1 0x40 MLOAD DUP1 SWAP2 SUB SWAP1 RETURN JUMPDEST CALLVALUE DUP1 ISZERO PUSH2 0x2FE JUMPI PUSH0 DUP1 REVERT JUMPDEST POP PUSH2 0x307 PUSH2 0xDD4 JUMP JUMPDEST PUSH1 0x40 MLOAD PUSH2 0x314 SWAP2 SWAP1 PUSH2 0x1260 JUMP JUMPDEST PUSH1 0x40 MLOAD DUP1 SWAP2 SUB SWAP1 RETURN JUMPDEST CALLVALUE DUP1 ISZERO PUSH2 0x328 JUMPI PUSH0 DUP1 REVERT JUMPDEST POP PUSH2 0x343 PUSH1 0x4 DUP1 CALLDATASIZE SUB DUP2 ADD SWAP1 PUSH2 0x33E SWAP2 SWAP1 PUSH2 0x10DE JUMP JUMPDEST PUSH2 0xDDA JUMP JUMPDEST PUSH1 0x40 MLOAD PUSH2 0x352 SWAP4 SWAP3 SWAP2 SWAP1 PUSH2 0x16D6 JUMP JUMPDEST PUSH1 0x40 MLOAD DUP1 SWAP2 SUB SWAP1 RETURN JUMPDEST PUSH2 0x363 PUSH2 0xEB4 JUMP JUMPDEST STOP JUMPDEST PUSH1 0x2 SLOAD TIMESTAMP LT PUSH2 0x3A9 JUMPI PUSH1 0x40 MLOAD PUSH32 0x8C379A000000000000000000000000000000000000000000000000000000000 DUP2 MSTORE PUSH1 0x4 ADD PUSH2 0x3A0 SWAP1 PUSH2 0x175C JUMP JUMPDEST PUSH1 0x40 MLOAD DUP1 SWAP2 SUB SWAP1 REVERT JUMPDEST PUSH1 0x7 PUSH0 CALLER PUSH20 0xFFFFFFFFFFFFFFFFFFFFFFFFFFFFFFFFFFFFFFFF AND PUSH20 0xFFFFFFFFFFFFFFFFFFFFFFFFFFFFFFFFFFFFFFFF AND DUP2 MSTORE PUSH1 0x20 ADD SWAP1 DUP2 MSTORE PUSH1 0x20 ADD PUSH0 KECCAK256 PUSH0 SWAP1 SLOAD SWAP1 PUSH2 0x100 EXP SWAP1 DIV PUSH1 0xFF AND ISZERO PUSH2 0x433 JUMPI PUSH1 0x40 MLOAD PUSH32 0x8C379A000000000000000000000000000000000000000000000000000000000 DUP2 MSTORE PUSH1 0x4 ADD PUSH2 0x42A SWAP1 PUSH2 0x17C4 JUMP JUMPDEST PUSH1 0x40 MLOAD DUP1 SWAP2 SUB SWAP1 REVERT JUMPDEST PUSH1 0x6 DUP1 SLOAD SWAP1 POP DUP2 LT PUSH2 0x47A JUMPI PUSH1 0x40 MLOAD PUSH32 0x8C379A000000000000000000000000000000000000000000000000000000000 DUP2 MSTORE PUSH1 0x4 ADD PUSH2 0x471 SWAP1 PUSH2 0x182C JUMP JUMPDEST PUSH1 0x40 MLOAD DUP1 SWAP2 SUB SWAP1 REVERT JUMPDEST PUSH1 0x1 PUSH1 0x7 PUSH0 CALLER PUSH20 0xFFFFFFFFFFFFFFFFFFFFFFFFFFFFFFFFFFFFFFFF AND PUSH20 0xFFFFFFFFFFFFFFFFFFFFFFFFFFFFFFFFFFFFFFFF AND DUP2 MSTORE PUSH1 0x20 ADD SWAP1 DUP2 MSTORE PUSH1 0x20 ADD PUSH0 KECCAK256 PUSH0 PUSH2 0x100 EXP DUP2 SLOAD DUP2 PUSH1 0xFF MUL NOT AND SWAP1 DUP4 ISZERO ISZERO MUL OR SWAP1 SSTORE POP PUSH1 0x1 PUSH1 0x6 DUP3 DUP2 SLOAD DUP2 LT PUSH2 0x4E5 JUMPI PUSH2 0x4E4 PUSH2 0x184A JUMP JUMPDEST JUMPDEST SWAP1 PUSH0 MSTORE PUSH1 0x20 PUSH0 KECCAK256 SWAP1 PUSH1 0x3 MUL ADD PUSH1 0x2 ADD PUSH0 DUP3 DUP3 SLOAD PUSH2 0x502 SWAP2 SWAP1 PUSH2 0x18A4 JUMP JUMPDEST SWAP3 POP POP DUP2 SWAP1 SSTORE POP DUP1 CALLER PUSH20 0xFFFFFFFFFFFFFFFFFFFFFFFFFFFFFFFFFFFFFFFF AND PUSH32 0x758CE7D2B09AC027FC94A1655219010AA7E53BBC780A4FF3161FA70FB2AA9151 PUSH1 0x40 MLOAD PUSH1 0x40 MLOAD DUP1 SWAP2 SUB SWAP1 LOG3 POP JUMP JUMPDEST PUSH0 DUP1 SLOAD PUSH2 0x55C SWAP1 PUSH2 0x1904 JUMP JUMPDEST DUP1 PUSH1 0x1F ADD PUSH1 0x20 DUP1 SWAP2 DIV MUL PUSH1 0x20 ADD PUSH1 0x40 MLOAD SWAP1 DUP2 ADD PUSH1 0x40 MSTORE DUP1 SWAP3 SWAP2 SWAP1 DUP2 DUP2 MSTORE PUSH1 0x20 ADD DUP3 DUP1 SLOAD PUSH2 0x588 SWAP1 PUSH2 0x1904 JUMP JUMPDEST DUP1 ISZERO PUSH2 0x5D3 JUMPI DUP1 PUSH1 0x1F LT PUSH2 0x5AA JUMPI PUSH2 0x100 DUP1 DUP4 SLOAD DIV MUL DUP4 MSTORE SWAP2 PUSH1 0x20 ADD SWAP2 PUSH2 0x5D3 JUMP JUMPDEST DUP3 ADD SWAP2 SWAP1 PUSH0 MSTORE PUSH1 0x20 PUSH0 KECCAK256 SWAP1 JUMPDEST DUP2 SLOAD DUP2 MSTORE SWAP1 PUSH1 0x1 ADD SWAP1 PUSH1 0x20 ADD DUP1 DUP4 GT PUSH2 0x5B6 JUMPI DUP3 SWAP1 SUB PUSH1 0x1F AND DUP3 ADD SWAP2 JUMPDEST POP POP POP POP POP DUP2 JUMP JUMPDEST PUSH1 0x7 PUSH1 0x20 MSTORE DUP1 PUSH0 MSTORE PUSH1 0x40 PUSH0 KECCAK256 PUSH0 SWAP2 POP SLOAD SWAP1 PUSH2 0x100 EXP SWAP1 DIV PUSH1 0xFF AND DUP2 JUMP JUMPDEST PUSH1 0x2 SLOAD DUP2 JUMP JUMPDEST PUSH1 0x1 PUSH0 SWAP1 SLOAD SWAP1 PUSH2 0x100 EXP SWAP1 DIV PUSH20 0xFFFFFFFFFFFFFFFFFFFFFFFFFFFFFFFFFFFFFFFF AND PUSH20 0xFFFFFFFFFFFFFFFFFFFFFFFFFFFFFFFFFFFFFFFF AND CALLER PUSH20 0xFFFFFFFFFFFFFFFFFFFFFFFFFFFFFFFFFFFFFFFF AND EQ PUSH2 0x68D JUMPI PUSH1 0x40 MLOAD PUSH32 0x8C379A000000000000000000000000000000000000000000000000000000000 DUP2 MSTORE PUSH1 0x4 ADD PUSH2 0x684 SWAP1 PUSH2 0x19A4 JUMP JUMPDEST PUSH1 0x40 MLOAD DUP1 SWAP2 SUB SWAP1 REVERT JUMPDEST PUSH1 0x2 SLOAD TIMESTAMP LT ISZERO PUSH2 0x6D2 JUMPI PUSH1 0x40 MLOAD PUSH32 0x8C379A000000000000000000000000000000000000000000000000000000000 DUP2 MSTORE PUSH1 0x4 ADD PUSH2 0x6C9 SWAP1 PUSH2 0x1A32 JUMP JUMPDEST PUSH1 0x40 MLOAD DUP1 SWAP2 SUB SWAP1 REVERT JUMPDEST PUSH0 DUP1 JUMPDEST PUSH1 0x6 DUP1 SLOAD SWAP1 POP DUP2 LT ISZERO PUSH2 0x741 JUMPI DUP2 PUSH1 0x6 DUP3 DUP2 SLOAD DUP2 LT PUSH2 0x6F7 JUMPI PUSH2 0x6F6 PUSH2 0x184A JUMP JUMPDEST JUMPDEST SWAP1 PUSH0 MSTORE PUSH1 0x20 PUSH0 KECCAK256 SWAP1 PUSH1 0x3 MUL ADD PUSH1 0x2 ADD SLOAD GT ISZERO PUSH2 0x734 JUMPI PUSH1 0x6 DUP2 DUP2 SLOAD DUP2 LT PUSH2 0x721 JUMPI PUSH2 0x720 PUSH2 0x184A JUMP JUMPDEST JUMPDEST SWAP1 PUSH0 MSTORE PUSH1 0x20 PUSH0 KECCAK256 SWAP1 PUSH1 0x3 MUL ADD PUSH1 0x2 ADD SLOAD SWAP2 POP JUMPDEST DUP1 DUP1 PUSH1 0x1 ADD SWAP2 POP POP PUSH2 0x6D5 JUMP JUMPDEST POP PUSH0 DUP1 JUMPDEST PUSH1 0x6 DUP1 SLOAD SWAP1 POP DUP2 LT ISZERO PUSH2 0x798 JUMPI DUP3 PUSH1 0x6 DUP3 DUP2 SLOAD DUP2 LT PUSH2 0x767 JUMPI PUSH2 0x766 PUSH2 0x184A JUMP JUMPDEST JUMPDEST SWAP1 PUSH0 MSTORE PUSH1 0x20 PUSH0 KECCAK256 SWAP1 PUSH1 0x3 MUL ADD PUSH1 0x2 ADD SLOAD SUB PUSH2 0x78B JUMPI DUP2 DUP1 PUSH2 0x787 SWAP1 PUSH2 0x1A50 JUMP JUMPDEST SWAP3 POP POP JUMPDEST DUP1 DUP1 PUSH1 0x1 ADD SWAP2 POP POP PUSH2 0x745 JUMP JUMPDEST POP PUSH0 DUP2 GT PUSH2 0x7DB JUMPI PUSH1 0x40 MLOAD PUSH32 0x8C379A000000000000000000000000000000000000000000000000000000000 DUP2 MSTORE PUSH1 0x4 ADD PUSH2 0x7D2 SWAP1 PUSH2 0x1B07 JUMP JUMPDEST PUSH1 0x40 MLOAD DUP1 SWAP2 SUB SWAP1 REVERT JUMPDEST PUSH0 DUP2 PUSH1 0x3 SLOAD PUSH2 0x7EA SWAP2 SWAP1 PUSH2 0x1B52 JUMP JUMPDEST SWAP1 POP PUSH0 PUSH1 0x3 DUP2 SWAP1 SSTORE POP PUSH3 0x278D00 TIMESTAMP PUSH2 0x802 SWAP2 SWAP1 PUSH2 0x18A4 JUMP JUMPDEST PUSH1 0x2 DUP2 SWAP1 SSTORE POP PUSH0 JUMPDEST PUSH1 0x6 DUP1 SLOAD SWAP1 POP DUP2 LT ISZERO PUSH2 0x963 JUMPI DUP4 PUSH1 0x6 DUP3 DUP2 SLOAD DUP2 LT PUSH2 0x82C JUMPI PUSH2 0x82B PUSH2 0x184A JUMP JUMPDEST JUMPDEST SWAP1 PUSH0 MSTORE PUSH1 0x20 PUSH0 KECCAK256 SWAP1 PUSH1 0x3 MUL ADD PUSH1 0x2 ADD SLOAD SUB PUSH2 0x956 JUMPI PUSH1 0x6 DUP2 DUP2 SLOAD DUP2 LT PUSH2 0x855 JUMPI PUSH2 0x854 PUSH2 0x184A JUMP JUMPDEST JUMPDEST SWAP1 PUSH0 MSTORE PUSH1 0x20 PUSH0 KECCAK256 SWAP1 PUSH1 0x3 MUL ADD PUSH0 ADD PUSH0 SWAP1 SLOAD SWAP1 PUSH2 0x100 EXP SWAP1 DIV PUSH20 0xFFFFFFFFFFFFFFFFFFFFFFFFFFFFFFFFFFFFFFFF AND PUSH20 0xFFFFFFFFFFFFFFFFFFFFFFFFFFFFFFFFFFFFFFFF AND PUSH2 0x8FC DUP4 SWAP1 DUP2 ISZERO MUL SWAP1 PUSH1 0x40 MLOAD PUSH0 PUSH1 0x40 MLOAD DUP1 DUP4 SUB DUP2 DUP6 DUP9 DUP9 CALL SWAP4 POP POP POP POP ISZERO DUP1 ISZERO PUSH2 0x8C5 JUMPI RETURNDATASIZE PUSH0 DUP1 RETURNDATACOPY RETURNDATASIZE PUSH0 REVERT JUMPDEST POP PUSH1 0x6 DUP2 DUP2 SLOAD DUP2 LT PUSH2 0x8DA JUMPI PUSH2 0x8D9 PUSH2 0x184A JUMP JUMPDEST JUMPDEST SWAP1 PUSH0 MSTORE PUSH1 0x20 PUSH0 KECCAK256 SWAP1 PUSH1 0x3 MUL ADD PUSH0 ADD PUSH0 SWAP1 SLOAD SWAP1 PUSH2 0x100 EXP SWAP1 DIV PUSH20 0xFFFFFFFFFFFFFFFFFFFFFFFFFFFFFFFFFFFFFFFF AND PUSH20 0xFFFFFFFFFFFFFFFFFFFFFFFFFFFFFFFFFFFFFFFF AND PUSH32 0x26536799ACE2C3DBE12E638EC3ADE6B4173DCF1289BE0A58D51A5003015649BD DUP4 PUSH1 0x40 MLOAD PUSH2 0x94D SWAP2 SWAP1 PUSH2 0x1260 JUMP JUMPDEST PUSH1 0x40 MLOAD DUP1 SWAP2 SUB SWAP1 LOG2 JUMPDEST DUP1 DUP1 PUSH1 0x1 ADD SWAP2 POP POP PUSH2 0x80A JUMP JUMPDEST POP POP POP POP JUMP JUMPDEST PUSH1 0x1 PUSH0 SWAP1 SLOAD SWAP1 PUSH2 0x100 EXP SWAP1 DIV PUSH20 0xFFFFFFFFFFFFFFFFFFFFFFFFFFFFFFFFFFFFFFFF AND DUP2 JUMP JUMPDEST PUSH1 0x5 DUP2 DUP2 SLOAD DUP2 LT PUSH2 0x99D JUMPI PUSH0 DUP1 REVERT JUMPDEST SWAP1 PUSH0 MSTORE PUSH1 0x20 PUSH0 KECCAK256 ADD PUSH0 SWAP2 POP SLOAD SWAP1 PUSH2 0x100 EXP SWAP1 DIV PUSH20 0xFFFFFFFFFFFFFFFFFFFFFFFFFFFFFFFFFFFFFFFF AND DUP2 JUMP JUMPDEST PUSH1 0x1 PUSH0 SWAP1 SLOAD SWAP1 PUSH2 0x100 EXP SWAP1 DIV PUSH20 0xFFFFFFFFFFFFFFFFFFFFFFFFFFFFFFFFFFFFFFFF AND PUSH20 0xFFFFFFFFFFFFFFFFFFFFFFFFFFFFFFFFFFFFFFFF AND CALLER PUSH20 0xFFFFFFFFFFFFFFFFFFFFFFFFFFFFFFFFFFFFFFFF AND EQ PUSH2 0xA58 JUMPI PUSH1 0x40 MLOAD PUSH32 0x8C379A000000000000000000000000000000000000000000000000000000000 DUP2 MSTORE PUSH1 0x4 ADD PUSH2 0xA4F SWAP1 PUSH2 0x1BF2 JUMP JUMPDEST PUSH1 0x40 MLOAD DUP1 SWAP2 SUB SWAP1 REVERT JUMPDEST PUSH1 0x6 PUSH1 0x40 MLOAD DUP1 PUSH1 0x60 ADD PUSH1 0x40 MSTORE DUP1 DUP4 PUSH20 0xFFFFFFFFFFFFFFFFFFFFFFFFFFFFFFFFFFFFFFFF AND DUP2 MSTORE PUSH1 0x20 ADD DUP5 DUP2 MSTORE PUSH1 0x20 ADD PUSH0 DUP2 MSTORE POP SWAP1 DUP1 PUSH1 0x1 DUP2 SLOAD ADD DUP1 DUP3 SSTORE DUP1 SWAP2 POP POP PUSH1 0x1 SWAP1 SUB SWAP1 PUSH0 MSTORE PUSH1 0x20 PUSH0 KECCAK256 SWAP1 PUSH1 0x3 MUL ADD PUSH0 SWAP1 SWAP2 SWAP1 SWAP2 SWAP1 SWAP2 POP PUSH0 DUP3 ADD MLOAD DUP2 PUSH0 ADD PUSH0 PUSH2 0x100 EXP DUP2 SLOAD DUP2 PUSH20 0xFFFFFFFFFFFFFFFFFFFFFFFFFFFFFFFFFFFFFFFF MUL NOT AND SWAP1 DUP4 PUSH20 0xFFFFFFFFFFFFFFFFFFFFFFFFFFFFFFFFFFFFFFFF AND MUL OR SWAP1 SSTORE POP PUSH1 0x20 DUP3 ADD MLOAD DUP2 PUSH1 0x1 ADD SWAP1 DUP2 PUSH2 0xB0A SWAP2 SWAP1 PUSH2 0x1DAD JUMP JUMPDEST POP PUSH1 0x40 DUP3 ADD MLOAD DUP2 PUSH1 0x2 ADD SSTORE POP POP POP POP JUMP JUMPDEST PUSH1 0x60 PUSH1 0x5 DUP1 SLOAD DUP1 PUSH1 0x20 MUL PUSH1 0x20 ADD PUSH1 0x40 MLOAD SWAP1 DUP2 ADD PUSH1 0x40 MSTORE DUP1 SWAP3 SWAP2 SWAP1 DUP2 DUP2 MSTORE PUSH1 0x20 ADD DUP3 DUP1 SLOAD DUP1 ISZERO PUSH2 0xB9C JUMPI PUSH1 0x20 MUL DUP3 ADD SWAP2 SWAP1 PUSH0 MSTORE PUSH1 0x20 PUSH0 KECCAK256 SWAP1 JUMPDEST DUP2 PUSH0 SWAP1 SLOAD SWAP1 PUSH2 0x100 EXP SWAP1 DIV PUSH20 0xFFFFFFFFFFFFFFFFFFFFFFFFFFFFFFFFFFFFFFFF AND PUSH20 0xFFFFFFFFFFFFFFFFFFFFFFFFFFFFFFFFFFFFFFFF AND DUP2 MSTORE PUSH1 0x20 ADD SWAP1 PUSH1 0x1 ADD SWAP1 DUP1 DUP4 GT PUSH2 0xB53 JUMPI JUMPDEST POP POP POP POP POP SWAP1 POP SWAP1 JUMP JUMPDEST PUSH1 0x60 PUSH1 0x6 DUP1 SLOAD DUP1 PUSH1 0x20 MUL PUSH1 0x20 ADD PUSH1 0x40 MLOAD SWAP1 DUP2 ADD PUSH1 0x40 MSTORE DUP1 SWAP3 SWAP2 SWAP1 DUP2 DUP2 MSTORE PUSH1 0x20 ADD PUSH0 SWAP1 JUMPDEST DUP3 DUP3 LT ISZERO PUSH2 0xCE7 JUMPI DUP4 DUP3 SWAP1 PUSH0 MSTORE PUSH1 0x20 PUSH0 KECCAK256 SWAP1 PUSH1 0x3 MUL ADD PUSH1 0x40 MLOAD DUP1 PUSH1 0x60 ADD PUSH1 0x40 MSTORE SWAP1 DUP2 PUSH0 DUP3 ADD PUSH0 SWAP1 SLOAD SWAP1 PUSH2 0x100 EXP SWAP1 DIV PUSH20 0xFFFFFFFFFFFFFFFFFFFFFFFFFFFFFFFFFFFFFFFF AND PUSH20 0xFFFFFFFFFFFFFFFFFFFFFFFFFFFFFFFFFFFFFFFF AND PUSH20 0xFFFFFFFFFFFFFFFFFFFFFFFFFFFFFFFFFFFFFFFF AND DUP2 MSTORE PUSH1 0x20 ADD PUSH1 0x1 DUP3 ADD DUP1 SLOAD PUSH2 0xC4E SWAP1 PUSH2 0x1904 JUMP JUMPDEST DUP1 PUSH1 0x1F ADD PUSH1 0x20 DUP1 SWAP2 DIV MUL PUSH1 0x20 ADD PUSH1 0x40 MLOAD SWAP1 DUP2 ADD PUSH1 0x40 MSTORE DUP1 SWAP3 SWAP2 SWAP1 DUP2 DUP2 MSTORE PUSH1 0x20 ADD DUP3 DUP1 SLOAD PUSH2 0xC7A SWAP1 PUSH2 0x1904 JUMP JUMPDEST DUP1 ISZERO PUSH2 0xCC5 JUMPI DUP1 PUSH1 0x1F LT PUSH2 0xC9C JUMPI PUSH2 0x100 DUP1 DUP4 SLOAD DIV MUL DUP4 MSTORE SWAP2 PUSH1 0x20 ADD SWAP2 PUSH2 0xCC5 JUMP JUMPDEST DUP3 ADD SWAP2 SWAP1 PUSH0 MSTORE PUSH1 0x20 PUSH0 KECCAK256 SWAP1 JUMPDEST DUP2 SLOAD DUP2 MSTORE SWAP1 PUSH1 0x1 ADD SWAP1 PUSH1 0x20 ADD DUP1 DUP4 GT PUSH2 0xCA8 JUMPI DUP3 SWAP1 SUB PUSH1 0x1F AND DUP3 ADD SWAP2 JUMPDEST POP POP POP POP POP DUP2 MSTORE PUSH1 0x20 ADD PUSH1 0x2 DUP3 ADD SLOAD DUP2 MSTORE POP POP DUP2 MSTORE PUSH1 0x20 ADD SWAP1 PUSH1 0x1 ADD SWAP1 PUSH2 0xBC9 JUMP JUMPDEST POP POP POP POP SWAP1 POP SWAP1 JUMP JUMPDEST PUSH1 0x6 DUP1 SLOAD SWAP1 POP DUP2 LT PUSH2 0xD37 JUMPI PUSH1 0x40 MLOAD PUSH32 0x8C379A000000000000000000000000000000000000000000000000000000000 DUP2 MSTORE PUSH1 0x4 ADD PUSH2 0xD2E SWAP1 PUSH2 0x182C JUMP JUMPDEST PUSH1 0x40 MLOAD DUP1 SWAP2 SUB SWAP1 REVERT JUMPDEST PUSH1 0x6 DUP2 DUP2 SLOAD DUP2 LT PUSH2 0xD4B JUMPI PUSH2 0xD4A PUSH2 0x184A JUMP JUMPDEST JUMPDEST SWAP1 PUSH0 MSTORE PUSH1 0x20 PUSH0 KECCAK256 SWAP1 PUSH1 0x3 MUL ADD PUSH0 ADD PUSH0 SWAP1 SLOAD SWAP1 PUSH2 0x100 EXP SWAP1 DIV PUSH20 0xFFFFFFFFFFFFFFFFFFFFFFFFFFFFFFFFFFFFFFFF AND PUSH20 0xFFFFFFFFFFFFFFFFFFFFFFFFFFFFFFFFFFFFFFFF AND PUSH2 0x8FC CALLVALUE SWAP1 DUP2 ISZERO MUL SWAP1 PUSH1 0x40 MLOAD PUSH0 PUSH1 0x40 MLOAD DUP1 DUP4 SUB DUP2 DUP6 DUP9 DUP9 CALL SWAP4 POP POP POP POP ISZERO DUP1 ISZERO PUSH2 0xDBB JUMPI RETURNDATASIZE PUSH0 DUP1 RETURNDATACOPY RETURNDATASIZE PUSH0 REVERT JUMPDEST POP POP JUMP JUMPDEST PUSH1 0x4 PUSH1 0x20 MSTORE DUP1 PUSH0 MSTORE PUSH1 0x40 PUSH0 KECCAK256 PUSH0 SWAP2 POP SWAP1 POP SLOAD DUP2 JUMP JUMPDEST PUSH1 0x3 SLOAD DUP2 JUMP JUMPDEST PUSH1 0x6 DUP2 DUP2 SLOAD DUP2 LT PUSH2 0xDE9 JUMPI PUSH0 DUP1 REVERT JUMPDEST SWAP1 PUSH0 MSTORE PUSH1 0x20 PUSH0 KECCAK256 SWAP1 PUSH1 0x3 MUL ADD PUSH0 SWAP2 POP SWAP1 POP DUP1 PUSH0 ADD PUSH0 SWAP1 SLOAD SWAP1 PUSH2 0x100 EXP SWAP1 DIV PUSH20 0xFFFFFFFFFFFFFFFFFFFFFFFFFFFFFFFFFFFFFFFF AND SWAP1 DUP1 PUSH1 0x1 ADD DUP1 SLOAD PUSH2 0xE2D SWAP1 PUSH2 0x1904 JUMP JUMPDEST DUP1 PUSH1 0x1F ADD PUSH1 0x20 DUP1 SWAP2 DIV MUL PUSH1 0x20 ADD PUSH1 0x40 MLOAD SWAP1 DUP2 ADD PUSH1 0x40 MSTORE DUP1 SWAP3 SWAP2 SWAP1 DUP2 DUP2 MSTORE PUSH1 0x20 ADD DUP3 DUP1 SLOAD PUSH2 0xE59 SWAP1 PUSH2 0x1904 JUMP JUMPDEST DUP1 ISZERO PUSH2 0xEA4 JUMPI DUP1 PUSH1 0x1F LT PUSH2 0xE7B JUMPI PUSH2 0x100 DUP1 DUP4 SLOAD DIV MUL DUP4 MSTORE SWAP2 PUSH1 0x20 ADD SWAP2 PUSH2 0xEA4 JUMP JUMPDEST DUP3 ADD SWAP2 SWAP1 PUSH0 MSTORE PUSH1 0x20 PUSH0 KECCAK256 SWAP1 JUMPDEST DUP2 SLOAD DUP2 MSTORE SWAP1 PUSH1 0x1 ADD SWAP1 PUSH1 0x20 ADD DUP1 DUP4 GT PUSH2 0xE87 JUMPI DUP3 SWAP1 SUB PUSH1 0x1F AND DUP3 ADD SWAP2 JUMPDEST POP POP POP POP POP SWAP1 DUP1 PUSH1 0x2 ADD SLOAD SWAP1 POP DUP4 JUMP JUMPDEST PUSH1 0x2 SLOAD TIMESTAMP LT PUSH2 0xEF8 JUMPI PUSH1 0x40 MLOAD PUSH32 0x8C379A000000000000000000000000000000000000000000000000000000000 DUP2 MSTORE PUSH1 0x4 ADD PUSH2 0xEEF SWAP1 PUSH2 0x1EC6 JUMP JUMPDEST PUSH1 0x40 MLOAD DUP1 SWAP2 SUB SWAP1 REVERT JUMPDEST PUSH0 CALLVALUE GT PUSH2 0xF3A JUMPI PUSH1 0x40 MLOAD PUSH32 0x8C379A000000000000000000000000000000000000000000000000000000000 DUP2 MSTORE PUSH1 0x4 ADD PUSH2 0xF31 SWAP1 PUSH2 0x1F54 JUMP JUMPDEST PUSH1 0x40 MLOAD DUP1 SWAP2 SUB SWAP1 REVERT JUMPDEST PUSH0 PUSH1 0x4 PUSH0 CALLER PUSH20 0xFFFFFFFFFFFFFFFFFFFFFFFFFFFFFFFFFFFFFFFF AND PUSH20 0xFFFFFFFFFFFFFFFFFFFFFFFFFFFFFFFFFFFFFFFF AND DUP2 MSTORE PUSH1 0x20 ADD SWAP1 DUP2 MSTORE PUSH1 0x20 ADD PUSH0 KECCAK256 SLOAD SUB PUSH2 0xFDF JUMPI PUSH1 0x5 CALLER SWAP1 DUP1 PUSH1 0x1 DUP2 SLOAD ADD DUP1 DUP3 SSTORE DUP1 SWAP2 POP POP PUSH1 0x1 SWAP1 SUB SWAP1 PUSH0 MSTORE PUSH1 0x20 PUSH0 KECCAK256 ADD PUSH0 SWAP1 SWAP2 SWAP1 SWAP2 SWAP1 SWAP2 PUSH2 0x100 EXP DUP2 SLOAD DUP2 PUSH20 0xFFFFFFFFFFFFFFFFFFFFFFFFFFFFFFFFFFFFFFFF MUL NOT AND SWAP1 DUP4 PUSH20 0xFFFFFFFFFFFFFFFFFFFFFFFFFFFFFFFFFFFFFFFF AND MUL OR SWAP1 SSTORE POP JUMPDEST CALLVALUE PUSH1 0x4 PUSH0 CALLER PUSH20 0xFFFFFFFFFFFFFFFFFFFFFFFFFFFFFFFFFFFFFFFF AND PUSH20 0xFFFFFFFFFFFFFFFFFFFFFFFFFFFFFFFFFFFFFFFF AND DUP2 MSTORE PUSH1 0x20 ADD SWAP1 DUP2 MSTORE PUSH1 0x20 ADD PUSH0 KECCAK256 PUSH0 DUP3 DUP3 SLOAD PUSH2 0x102B SWAP2 SWAP1 PUSH2 0x18A4 JUMP JUMPDEST SWAP3 POP POP DUP2 SWAP1 SSTORE POP CALLVALUE PUSH1 0x3 PUSH0 DUP3 DUP3 SLOAD PUSH2 0x1043 SWAP2 SWAP1 PUSH2 0x18A4 JUMP JUMPDEST SWAP3 POP POP DUP2 SWAP1 SSTORE POP CALLER PUSH20 0xFFFFFFFFFFFFFFFFFFFFFFFFFFFFFFFFFFFFFFFF AND PUSH32 0x264F630D9EFA0D07053A31163641D9FCC0ADAFC9D9E76F1C37C2CE3A558D2C52 CALLVALUE PUSH1 0x40 MLOAD PUSH2 0x1090 SWAP2 SWAP1 PUSH2 0x1260 JUMP JUMPDEST PUSH1 0x40 MLOAD DUP1 SWAP2 SUB SWAP1 LOG2 JUMP JUMPDEST PUSH0 PUSH1 0x40 MLOAD SWAP1 POP SWAP1 JUMP JUMPDEST PUSH0 DUP1 REVERT JUMPDEST PUSH0 DUP1 REVERT JUMPDEST PUSH0 DUP2 SWAP1 POP SWAP2 SWAP1 POP JUMP JUMPDEST PUSH2 0x10BD DUP2 PUSH2 0x10AB JUMP JUMPDEST DUP2 EQ PUSH2 0x10C7 JUMPI PUSH0 DUP1 REVERT JUMPDEST POP JUMP JUMPDEST PUSH0 DUP2 CALLDATALOAD SWAP1 POP PUSH2 0x10D8 DUP2 PUSH2 0x10B4 JUMP JUMPDEST SWAP3 SWAP2 POP POP JUMP JUMPDEST PUSH0 PUSH1 0x20 DUP3 DUP5 SUB SLT ISZERO PUSH2 0x10F3 JUMPI PUSH2 0x10F2 PUSH2 0x10A3 JUMP JUMPDEST JUMPDEST PUSH0 PUSH2 0x1100 DUP5 DUP3 DUP6 ADD PUSH2 0x10CA JUMP JUMPDEST SWAP2 POP POP SWAP3 SWAP2 POP POP JUMP JUMPDEST PUSH0 DUP2 MLOAD SWAP1 POP SWAP2 SWAP1 POP JUMP JUMPDEST PUSH0 DUP3 DUP3 MSTORE PUSH1 0x20 DUP3 ADD SWAP1 POP SWAP3 SWAP2 POP POP JUMP JUMPDEST DUP3 DUP2 DUP4 MCOPY PUSH0 DUP4 DUP4 ADD MSTORE POP POP POP JUMP JUMPDEST PUSH0 PUSH1 0x1F NOT PUSH1 0x1F DUP4 ADD AND SWAP1 POP SWAP2 SWAP1 POP JUMP JUMPDEST PUSH0 PUSH2 0x114B DUP3 PUSH2 0x1109 JUMP JUMPDEST PUSH2 0x1155 DUP2 DUP6 PUSH2 0x1113 JUMP JUMPDEST SWAP4 POP PUSH2 0x1165 DUP2 DUP6 PUSH1 0x20 DUP7 ADD PUSH2 0x1123 JUMP JUMPDEST PUSH2 0x116E DUP2 PUSH2 0x1131 JUMP JUMPDEST DUP5 ADD SWAP2 POP POP SWAP3 SWAP2 POP POP JUMP JUMPDEST PUSH0 PUSH1 0x20 DUP3 ADD SWAP1 POP DUP2 DUP2 SUB PUSH0 DUP4 ADD MSTORE PUSH2 0x1191 DUP2 DUP5 PUSH2 0x1141 JUMP JUMPDEST SWAP1 POP SWAP3 SWAP2 POP POP JUMP JUMPDEST PUSH0 PUSH20 0xFFFFFFFFFFFFFFFFFFFFFFFFFFFFFFFFFFFFFFFF DUP3 AND SWAP1 POP SWAP2 SWAP1 POP JUMP JUMPDEST PUSH0 PUSH2 0x11C2 DUP3 PUSH2 0x1199 JUMP JUMPDEST SWAP1 POP SWAP2 SWAP1 POP JUMP JUMPDEST PUSH2 0x11D2 DUP2 PUSH2 0x11B8 JUMP JUMPDEST DUP2 EQ PUSH2 0x11DC JUMPI PUSH0 DUP1 REVERT JUMPDEST POP JUMP JUMPDEST PUSH0 DUP2 CALLDATALOAD SWAP1 POP PUSH2 0x11ED DUP2 PUSH2 0x11C9 JUMP JUMPDEST SWAP3 SWAP2 POP POP JUMP JUMPDEST PUSH0 PUSH1 0x20 DUP3 DUP5 SUB SLT ISZERO PUSH2 0x1208 JUMPI PUSH2 0x1207 PUSH2 0x10A3 JUMP JUMPDEST JUMPDEST PUSH0 PUSH2 0x1215 DUP5 DUP3 DUP6 ADD PUSH2 0x11DF JUMP JUMPDEST SWAP2 POP POP SWAP3 SWAP2 POP POP JUMP JUMPDEST PUSH0 DUP2 ISZERO ISZERO SWAP1 POP SWAP2 SWAP1 POP JUMP JUMPDEST PUSH2 0x1232 DUP2 PUSH2 0x121E JUMP JUMPDEST DUP3 MSTORE POP POP JUMP JUMPDEST PUSH0 PUSH1 0x20 DUP3 ADD SWAP1 POP PUSH2 0x124B PUSH0 DUP4 ADD DUP5 PUSH2 0x1229 JUMP JUMPDEST SWAP3 SWAP2 POP POP JUMP JUMPDEST PUSH2 0x125A DUP2 PUSH2 0x10AB JUMP JUMPDEST DUP3 MSTORE POP POP JUMP JUMPDEST PUSH0 PUSH1 0x20 DUP3 ADD SWAP1 POP PUSH2 0x1273 PUSH0 DUP4 ADD DUP5 PUSH2 0x1251 JUMP JUMPDEST SWAP3 SWAP2 POP POP JUMP JUMPDEST PUSH2 0x1282 DUP2 PUSH2 0x11B8 JUMP JUMPDEST DUP3 MSTORE POP POP JUMP JUMPDEST PUSH0 PUSH1 0x20 DUP3 ADD SWAP1 POP PUSH2 0x129B PUSH0 DUP4 ADD DUP5 PUSH2 0x1279 JUMP JUMPDEST SWAP3 SWAP2 POP POP JUMP JUMPDEST PUSH0 DUP1 REVERT JUMPDEST PUSH0 DUP1 REVERT JUMPDEST PUSH32 0x4E487B7100000000000000000000000000000000000000000000000000000000 PUSH0 MSTORE PUSH1 0x41 PUSH1 0x4 MSTORE PUSH1 0x24 PUSH0 REVERT JUMPDEST PUSH2 0x12DF DUP3 PUSH2 0x1131 JUMP JUMPDEST DUP2 ADD DUP2 DUP2 LT PUSH8 0xFFFFFFFFFFFFFFFF DUP3 GT OR ISZERO PUSH2 0x12FE JUMPI PUSH2 0x12FD PUSH2 0x12A9 JUMP JUMPDEST JUMPDEST DUP1 PUSH1 0x40 MSTORE POP POP POP JUMP JUMPDEST PUSH0 PUSH2 0x1310 PUSH2 0x109A JUMP JUMPDEST SWAP1 POP PUSH2 0x131C DUP3 DUP3 PUSH2 0x12D6 JUMP JUMPDEST SWAP2 SWAP1 POP JUMP JUMPDEST PUSH0 PUSH8 0xFFFFFFFFFFFFFFFF DUP3 GT ISZERO PUSH2 0x133B JUMPI PUSH2 0x133A PUSH2 0x12A9 JUMP JUMPDEST JUMPDEST PUSH2 0x1344 DUP3 PUSH2 0x1131 JUMP JUMPDEST SWAP1 POP PUSH1 0x20 DUP2 ADD SWAP1 POP SWAP2 SWAP1 POP JUMP JUMPDEST DUP3 DUP2 DUP4 CALLDATACOPY PUSH0 DUP4 DUP4 ADD MSTORE POP POP POP JUMP JUMPDEST PUSH0 PUSH2 0x1371 PUSH2 0x136C DUP5 PUSH2 0x1321 JUMP JUMPDEST PUSH2 0x1307 JUMP JUMPDEST SWAP1 POP DUP3 DUP2 MSTORE PUSH1 0x20 DUP2 ADD DUP5 DUP5 DUP5 ADD GT ISZERO PUSH2 0x138D JUMPI PUSH2 0x138C PUSH2 0x12A5 JUMP JUMPDEST JUMPDEST PUSH2 0x1398 DUP5 DUP3 DUP6 PUSH2 0x1351 JUMP JUMPDEST POP SWAP4 SWAP3 POP POP POP JUMP JUMPDEST PUSH0 DUP3 PUSH1 0x1F DUP4 ADD SLT PUSH2 0x13B4 JUMPI PUSH2 0x13B3 PUSH2 0x12A1 JUMP JUMPDEST JUMPDEST DUP2 CALLDATALOAD PUSH2 0x13C4 DUP5 DUP3 PUSH1 0x20 DUP7 ADD PUSH2 0x135F JUMP JUMPDEST SWAP2 POP POP SWAP3 SWAP2 POP POP JUMP JUMPDEST PUSH0 PUSH2 0x13D7 DUP3 PUSH2 0x1199 JUMP JUMPDEST SWAP1 POP SWAP2 SWAP1 POP JUMP JUMPDEST PUSH2 0x13E7 DUP2 PUSH2 0x13CD JUMP JUMPDEST DUP2 EQ PUSH2 0x13F1 JUMPI PUSH0 DUP1 REVERT JUMPDEST POP JUMP JUMPDEST PUSH0 DUP2 CALLDATALOAD SWAP1 POP PUSH2 0x1402 DUP2 PUSH2 0x13DE JUMP JUMPDEST SWAP3 SWAP2 POP POP JUMP JUMPDEST PUSH0 DUP1 PUSH1 0x40 DUP4 DUP6 SUB SLT ISZERO PUSH2 0x141E JUMPI PUSH2 0x141D PUSH2 0x10A3 JUMP JUMPDEST JUMPDEST PUSH0 DUP4 ADD CALLDATALOAD PUSH8 0xFFFFFFFFFFFFFFFF DUP2 GT ISZERO PUSH2 0x143B JUMPI PUSH2 0x143A PUSH2 0x10A7 JUMP JUMPDEST JUMPDEST PUSH2 0x1447 DUP6 DUP3 DUP7 ADD PUSH2 0x13A0 JUMP JUMPDEST SWAP3 POP POP PUSH1 0x20 PUSH2 0x1458 DUP6 DUP3 DUP7 ADD PUSH2 0x13F4 JUMP JUMPDEST SWAP2 POP POP SWAP3 POP SWAP3 SWAP1 POP JUMP JUMPDEST PUSH0 DUP2 MLOAD SWAP1 POP SWAP2 SWAP1 POP JUMP JUMPDEST PUSH0 DUP3 DUP3 MSTORE PUSH1 0x20 DUP3 ADD SWAP1 POP SWAP3 SWAP2 POP POP JUMP JUMPDEST PUSH0 DUP2 SWAP1 POP PUSH1 0x20 DUP3 ADD SWAP1 POP SWAP2 SWAP1 POP JUMP JUMPDEST PUSH2 0x1494 DUP2 PUSH2 0x11B8 JUMP JUMPDEST DUP3 MSTORE POP POP JUMP JUMPDEST PUSH0 PUSH2 0x14A5 DUP4 DUP4 PUSH2 0x148B JUMP JUMPDEST PUSH1 0x20 DUP4 ADD SWAP1 POP SWAP3 SWAP2 POP POP JUMP JUMPDEST PUSH0 PUSH1 0x20 DUP3 ADD SWAP1 POP SWAP2 SWAP1 POP JUMP JUMPDEST PUSH0 PUSH2 0x14C7 DUP3 PUSH2 0x1462 JUMP JUMPDEST PUSH2 0x14D1 DUP2 DUP6 PUSH2 0x146C JUMP JUMPDEST SWAP4 POP PUSH2 0x14DC DUP4 PUSH2 0x147C JUMP JUMPDEST DUP1 PUSH0 JUMPDEST DUP4 DUP2 LT ISZERO PUSH2 0x150C JUMPI DUP2 MLOAD PUSH2 0x14F3 DUP9 DUP3 PUSH2 0x149A JUMP JUMPDEST SWAP8 POP PUSH2 0x14FE DUP4 PUSH2 0x14B1 JUMP JUMPDEST SWAP3 POP POP PUSH1 0x1 DUP2 ADD SWAP1 POP PUSH2 0x14DF JUMP JUMPDEST POP DUP6 SWAP4 POP POP POP POP SWAP3 SWAP2 POP POP JUMP JUMPDEST PUSH0 PUSH1 0x20 DUP3 ADD SWAP1 POP DUP2 DUP2 SUB PUSH0 DUP4 ADD MSTORE PUSH2 0x1531 DUP2 DUP5 PUSH2 0x14BD JUMP JUMPDEST SWAP1 POP SWAP3 SWAP2 POP POP JUMP JUMPDEST PUSH0 DUP2 MLOAD SWAP1 POP SWAP2 SWAP1 POP JUMP JUMPDEST PUSH0 DUP3 DUP3 MSTORE PUSH1 0x20 DUP3 ADD SWAP1 POP SWAP3 SWAP2 POP POP JUMP JUMPDEST PUSH0 DUP2 SWAP1 POP PUSH1 0x20 DUP3 ADD SWAP1 POP SWAP2 SWAP1 POP JUMP JUMPDEST PUSH2 0x156B DUP2 PUSH2 0x13CD JUMP JUMPDEST DUP3 MSTORE POP POP JUMP JUMPDEST PUSH0 DUP3 DUP3 MSTORE PUSH1 0x20 DUP3 ADD SWAP1 POP SWAP3 SWAP2 POP POP JUMP JUMPDEST PUSH0 PUSH2 0x158B DUP3 PUSH2 0x1109 JUMP JUMPDEST PUSH2 0x1595 DUP2 DUP6 PUSH2 0x1571 JUMP JUMPDEST SWAP4 POP PUSH2 0x15A5 DUP2 DUP6 PUSH1 0x20 DUP7 ADD PUSH2 0x1123 JUMP JUMPDEST PUSH2 0x15AE DUP2 PUSH2 0x1131 JUMP JUMPDEST DUP5 ADD SWAP2 POP POP SWAP3 SWAP2 POP POP JUMP JUMPDEST PUSH2 0x15C2 DUP2 PUSH2 0x10AB JUMP JUMPDEST DUP3 MSTORE POP POP JUMP JUMPDEST PUSH0 PUSH1 0x60 DUP4 ADD PUSH0 DUP4 ADD MLOAD PUSH2 0x15DD PUSH0 DUP7 ADD DUP3 PUSH2 0x1562 JUMP JUMPDEST POP PUSH1 0x20 DUP4 ADD MLOAD DUP5 DUP3 SUB PUSH1 0x20 DUP7 ADD MSTORE PUSH2 0x15F5 DUP3 DUP3 PUSH2 0x1581 JUMP JUMPDEST SWAP2 POP POP PUSH1 0x40 DUP4 ADD MLOAD PUSH2 0x160A PUSH1 0x40 DUP7 ADD DUP3 PUSH2 0x15B9 JUMP JUMPDEST POP DUP1 SWAP2 POP POP SWAP3 SWAP2 POP POP JUMP JUMPDEST PUSH0 PUSH2 0x1620 DUP4 DUP4 PUSH2 0x15C8 JUMP JUMPDEST SWAP1 POP SWAP3 SWAP2 POP POP JUMP JUMPDEST PUSH0 PUSH1 0x20 DUP3 ADD SWAP1 POP SWAP2 SWAP1 POP JUMP JUMPDEST PUSH0 PUSH2 0x163E DUP3 PUSH2 0x1539 JUMP JUMPDEST PUSH2 0x1648 DUP2 DUP6 PUSH2 0x1543 JUMP JUMPDEST SWAP4 POP DUP4 PUSH1 0x20 DUP3 MUL DUP6 ADD PUSH2 0x165A DUP6 PUSH2 0x1553 JUMP JUMPDEST DUP1 PUSH0 JUMPDEST DUP6 DUP2 LT ISZERO PUSH2 0x1695 JUMPI DUP5 DUP5 SUB DUP10 MSTORE DUP2 MLOAD PUSH2 0x1676 DUP6 DUP3 PUSH2 0x1615 JUMP JUMPDEST SWAP5 POP PUSH2 0x1681 DUP4 PUSH2 0x1628 JUMP JUMPDEST SWAP3 POP PUSH1 0x20 DUP11 ADD SWAP10 POP POP PUSH1 0x1 DUP2 ADD SWAP1 POP PUSH2 0x165D JUMP JUMPDEST POP DUP3 SWAP8 POP DUP8 SWAP6 POP POP POP POP POP POP SWAP3 SWAP2 POP POP JUMP JUMPDEST PUSH0 PUSH1 0x20 DUP3 ADD SWAP1 POP DUP2 DUP2 SUB PUSH0 DUP4 ADD MSTORE PUSH2 0x16BF DUP2 DUP5 PUSH2 0x1634 JUMP JUMPDEST SWAP1 POP SWAP3 SWAP2 POP POP JUMP JUMPDEST PUSH2 0x16D0 DUP2 PUSH2 0x13CD JUMP JUMPDEST DUP3 MSTORE POP POP JUMP JUMPDEST PUSH0 PUSH1 0x60 DUP3 ADD SWAP1 POP PUSH2 0x16E9 PUSH0 DUP4 ADD DUP7 PUSH2 0x16C7 JUMP JUMPDEST DUP2 DUP2 SUB PUSH1 0x20 DUP4 ADD MSTORE PUSH2 0x16FB DUP2 DUP6 PUSH2 0x1141 JUMP JUMPDEST SWAP1 POP PUSH2 0x170A PUSH1 0x40 DUP4 ADD DUP5 PUSH2 0x1251 JUMP JUMPDEST SWAP5 SWAP4 POP POP POP POP JUMP JUMPDEST PUSH32 0x566F74696E6720706572696F6420686173206E6F742073746172746564000000 PUSH0 DUP3 ADD MSTORE POP JUMP JUMPDEST PUSH0 PUSH2 0x1746 PUSH1 0x1D DUP4 PUSH2 0x1113 JUMP JUMPDEST SWAP2 POP PUSH2 0x1751 DUP3 PUSH2 0x1712 JUMP JUMPDEST PUSH1 0x20 DUP3 ADD SWAP1 POP SWAP2 SWAP1 POP JUMP JUMPDEST PUSH0 PUSH1 0x20 DUP3 ADD SWAP1 POP DUP2 DUP2 SUB PUSH0 DUP4 ADD MSTORE PUSH2 0x1773 DUP2 PUSH2 0x173A JUMP JUMPDEST SWAP1 POP SWAP2 SWAP1 POP JUMP JUMPDEST PUSH32 0x596F75206861766520616C726561647920766F74656400000000000000000000 PUSH0 DUP3 ADD MSTORE POP JUMP JUMPDEST PUSH0 PUSH2 0x17AE PUSH1 0x16 DUP4 PUSH2 0x1113 JUMP JUMPDEST SWAP2 POP PUSH2 0x17B9 DUP3 PUSH2 0x177A JUMP JUMPDEST PUSH1 0x20 DUP3 ADD SWAP1 POP SWAP2 SWAP1 POP JUMP JUMPDEST PUSH0 PUSH1 0x20 DUP3 ADD SWAP1 POP DUP2 DUP2 SUB PUSH0 DUP4 ADD MSTORE PUSH2 0x17DB DUP2 PUSH2 0x17A2 JUMP JUMPDEST SWAP1 POP SWAP2 SWAP1 POP JUMP JUMPDEST PUSH32 0x496E76616C6964206F7267616E697A6174696F6E204944000000000000000000 PUSH0 DUP3 ADD MSTORE POP JUMP JUMPDEST PUSH0 PUSH2 0x1816 PUSH1 0x17 DUP4 PUSH2 0x1113 JUMP JUMPDEST SWAP2 POP PUSH2 0x1821 DUP3 PUSH2 0x17E2 JUMP JUMPDEST PUSH1 0x20 DUP3 ADD SWAP1 POP SWAP2 SWAP1 POP JUMP JUMPDEST PUSH0 PUSH1 0x20 DUP3 ADD SWAP1 POP DUP2 DUP2 SUB PUSH0 DUP4 ADD MSTORE PUSH2 0x1843 DUP2 PUSH2 0x180A JUMP JUMPDEST SWAP1 POP SWAP2 SWAP1 POP JUMP JUMPDEST PUSH32 0x4E487B7100000000000000000000000000000000000000000000000000000000 PUSH0 MSTORE PUSH1 0x32 PUSH1 0x4 MSTORE PUSH1 0x24 PUSH0 REVERT JUMPDEST PUSH32 0x4E487B7100000000000000000000000000000000000000000000000000000000 PUSH0 MSTORE PUSH1 0x11 PUSH1 0x4 MSTORE PUSH1 0x24 PUSH0 REVERT JUMPDEST PUSH0 PUSH2 0x18AE DUP3 PUSH2 0x10AB JUMP JUMPDEST SWAP2 POP PUSH2 0x18B9 DUP4 PUSH2 0x10AB JUMP JUMPDEST SWAP3 POP DUP3 DUP3 ADD SWAP1 POP DUP1 DUP3 GT ISZERO PUSH2 0x18D1 JUMPI PUSH2 0x18D0 PUSH2 0x1877 JUMP JUMPDEST JUMPDEST SWAP3 SWAP2 POP POP JUMP JUMPDEST PUSH32 0x4E487B7100000000000000000000000000000000000000000000000000000000 PUSH0 MSTORE PUSH1 0x22 PUSH1 0x4 MSTORE PUSH1 0x24 PUSH0 REVERT JUMPDEST PUSH0 PUSH1 0x2 DUP3 DIV SWAP1 POP PUSH1 0x1 DUP3 AND DUP1 PUSH2 0x191B JUMPI PUSH1 0x7F DUP3 AND SWAP2 POP JUMPDEST PUSH1 0x20 DUP3 LT DUP2 SUB PUSH2 0x192E JUMPI PUSH2 0x192D PUSH2 0x18D7 JUMP JUMPDEST JUMPDEST POP SWAP2 SWAP1 POP JUMP JUMPDEST PUSH32 0x4F6E6C7920746865206D616E616765722063616E206469737472696275746520 PUSH0 DUP3 ADD MSTORE PUSH32 0x66756E6473000000000000000000000000000000000000000000000000000000 PUSH1 0x20 DUP3 ADD MSTORE POP JUMP JUMPDEST PUSH0 PUSH2 0x198E PUSH1 0x25 DUP4 PUSH2 0x1113 JUMP JUMPDEST SWAP2 POP PUSH2 0x1999 DUP3 PUSH2 0x1934 JUMP JUMPDEST PUSH1 0x40 DUP3 ADD SWAP1 POP SWAP2 SWAP1 POP JUMP JUMPDEST PUSH0 PUSH1 0x20 DUP3 ADD SWAP1 POP DUP2 DUP2 SUB PUSH0 DUP4 ADD MSTORE PUSH2 0x19BB DUP2 PUSH2 0x1982 JUMP JUMPDEST SWAP1 POP SWAP2 SWAP1 POP JUMP JUMPDEST PUSH32 0x446F6E6174696F6E20706572696F6420686173206E6F7420656E646564207965 PUSH0 DUP3 ADD MSTORE PUSH32 0x7400000000000000000000000000000000000000000000000000000000000000 PUSH1 0x20 DUP3 ADD MSTORE POP JUMP JUMPDEST PUSH0 PUSH2 0x1A1C PUSH1 0x21 DUP4 PUSH2 0x1113 JUMP JUMPDEST SWAP2 POP PUSH2 0x1A27 DUP3 PUSH2 0x19C2 JUMP JUMPDEST PUSH1 0x40 DUP3 ADD SWAP1 POP SWAP2 SWAP1 POP JUMP JUMPDEST PUSH0 PUSH1 0x20 DUP3 ADD SWAP1 POP DUP2 DUP2 SUB PUSH0 DUP4 ADD MSTORE PUSH2 0x1A49 DUP2 PUSH2 0x1A10 JUMP JUMPDEST SWAP1 POP SWAP2 SWAP1 POP JUMP JUMPDEST PUSH0 PUSH2 0x1A5A DUP3 PUSH2 0x10AB JUMP JUMPDEST SWAP2 POP PUSH32 0xFFFFFFFFFFFFFFFFFFFFFFFFFFFFFFFFFFFFFFFFFFFFFFFFFFFFFFFFFFFFFFFF DUP3 SUB PUSH2 0x1A8C JUMPI PUSH2 0x1A8B PUSH2 0x1877 JUMP JUMPDEST JUMPDEST PUSH1 0x1 DUP3 ADD SWAP1 POP SWAP2 SWAP1 POP JUMP JUMPDEST PUSH32 0x4E6F206F7267616E697A6174696F6E7320746F20646973747269627574652066 PUSH0 DUP3 ADD MSTORE PUSH32 0x756E647320746F00000000000000000000000000000000000000000000000000 PUSH1 0x20 DUP3 ADD MSTORE POP JUMP JUMPDEST PUSH0 PUSH2 0x1AF1 PUSH1 0x27 DUP4 PUSH2 0x1113 JUMP JUMPDEST SWAP2 POP PUSH2 0x1AFC DUP3 PUSH2 0x1A97 JUMP JUMPDEST PUSH1 0x40 DUP3 ADD SWAP1 POP SWAP2 SWAP1 POP JUMP JUMPDEST PUSH0 PUSH1 0x20 DUP3 ADD SWAP1 POP DUP2 DUP2 SUB PUSH0 DUP4 ADD MSTORE PUSH2 0x1B1E DUP2 PUSH2 0x1AE5 JUMP JUMPDEST SWAP1 POP SWAP2 SWAP1 POP JUMP JUMPDEST PUSH32 0x4E487B7100000000000000000000000000000000000000000000000000000000 PUSH0 MSTORE PUSH1 0x12 PUSH1 0x4 MSTORE PUSH1 0x24 PUSH0 REVERT JUMPDEST PUSH0 PUSH2 0x1B5C DUP3 PUSH2 0x10AB JUMP JUMPDEST SWAP2 POP PUSH2 0x1B67 DUP4 PUSH2 0x10AB JUMP JUMPDEST SWAP3 POP DUP3 PUSH2 0x1B77 JUMPI PUSH2 0x1B76 PUSH2 0x1B25 JUMP JUMPDEST JUMPDEST DUP3 DUP3 DIV SWAP1 POP SWAP3 SWAP2 POP POP JUMP JUMPDEST PUSH32 0x4F6E6C7920746865206D616E616765722063616E20616464206F7267616E697A PUSH0 DUP3 ADD MSTORE PUSH32 0x6174696F6E730000000000000000000000000000000000000000000000000000 PUSH1 0x20 DUP3 ADD MSTORE POP JUMP JUMPDEST PUSH0 PUSH2 0x1BDC PUSH1 0x26 DUP4 PUSH2 0x1113 JUMP JUMPDEST SWAP2 POP PUSH2 0x1BE7 DUP3 PUSH2 0x1B82 JUMP JUMPDEST PUSH1 0x40 DUP3 ADD SWAP1 POP SWAP2 SWAP1 POP JUMP JUMPDEST PUSH0 PUSH1 0x20 DUP3 ADD SWAP1 POP DUP2 DUP2 SUB PUSH0 DUP4 ADD MSTORE PUSH2 0x1C09 DUP2 PUSH2 0x1BD0 JUMP JUMPDEST SWAP1 POP SWAP2 SWAP1 POP JUMP JUMPDEST PUSH0 DUP2 SWAP1 POP DUP2 PUSH0 MSTORE PUSH1 0x20 PUSH0 KECCAK256 SWAP1 POP SWAP2 SWAP1 POP JUMP JUMPDEST PUSH0 PUSH1 0x20 PUSH1 0x1F DUP4 ADD DIV SWAP1 POP SWAP2 SWAP1 POP JUMP JUMPDEST PUSH0 DUP3 DUP3 SHL SWAP1 POP SWAP3 SWAP2 POP POP JUMP JUMPDEST PUSH0 PUSH1 0x8 DUP4 MUL PUSH2 0x1C6C PUSH32 0xFFFFFFFFFFFFFFFFFFFFFFFFFFFFFFFFFFFFFFFFFFFFFFFFFFFFFFFFFFFFFFFF DUP3 PUSH2 0x1C31 JUMP JUMPDEST PUSH2 0x1C76 DUP7 DUP4 PUSH2 0x1C31 JUMP JUMPDEST SWAP6 POP DUP1 NOT DUP5 AND SWAP4 POP DUP1 DUP7 AND DUP5 OR SWAP3 POP POP POP SWAP4 SWAP3 POP POP POP JUMP JUMPDEST PUSH0 DUP2 SWAP1 POP SWAP2 SWAP1 POP JUMP JUMPDEST PUSH0 PUSH2 0x1CB1 PUSH2 0x1CAC PUSH2 0x1CA7 DUP5 PUSH2 0x10AB JUMP JUMPDEST PUSH2 0x1C8E JUMP JUMPDEST PUSH2 0x10AB JUMP JUMPDEST SWAP1 POP SWAP2 SWAP1 POP JUMP JUMPDEST PUSH0 DUP2 SWAP1 POP SWAP2 SWAP1 POP JUMP JUMPDEST PUSH2 0x1CCA DUP4 PUSH2 0x1C97 JUMP JUMPDEST PUSH2 0x1CDE PUSH2 0x1CD6 DUP3 PUSH2 0x1CB8 JUMP JUMPDEST DUP5 DUP5 SLOAD PUSH2 0x1C3D JUMP JUMPDEST DUP3 SSTORE POP POP POP POP JUMP JUMPDEST PUSH0 SWAP1 JUMP JUMPDEST PUSH2 0x1CF2 PUSH2 0x1CE6 JUMP JUMPDEST PUSH2 0x1CFD DUP2 DUP5 DUP5 PUSH2 0x1CC1 JUMP JUMPDEST POP POP POP JUMP JUMPDEST JUMPDEST DUP2 DUP2 LT ISZERO PUSH2 0x1D20 JUMPI PUSH2 0x1D15 PUSH0 DUP3 PUSH2 0x1CEA JUMP JUMPDEST PUSH1 0x1 DUP2 ADD SWAP1 POP PUSH2 0x1D03 JUMP JUMPDEST POP POP JUMP JUMPDEST PUSH1 0x1F DUP3 GT ISZERO PUSH2 0x1D65 JUMPI PUSH2 0x1D36 DUP2 PUSH2 0x1C10 JUMP JUMPDEST PUSH2 0x1D3F DUP5 PUSH2 0x1C22 JUMP JUMPDEST DUP2 ADD PUSH1 0x20 DUP6 LT ISZERO PUSH2 0x1D4E JUMPI DUP2 SWAP1 POP JUMPDEST PUSH2 0x1D62 PUSH2 0x1D5A DUP6 PUSH2 0x1C22 JUMP JUMPDEST DUP4 ADD DUP3 PUSH2 0x1D02 JUMP JUMPDEST POP POP JUMPDEST POP POP POP JUMP JUMPDEST PUSH0 DUP3 DUP3 SHR SWAP1 POP SWAP3 SWAP2 POP POP JUMP JUMPDEST PUSH0 PUSH2 0x1D85 PUSH0 NOT DUP5 PUSH1 0x8 MUL PUSH2 0x1D6A JUMP JUMPDEST NOT DUP1 DUP4 AND SWAP2 POP POP SWAP3 SWAP2 POP POP JUMP JUMPDEST PUSH0 PUSH2 0x1D9D DUP4 DUP4 PUSH2 0x1D76 JUMP JUMPDEST SWAP2 POP DUP3 PUSH1 0x2 MUL DUP3 OR SWAP1 POP SWAP3 SWAP2 POP POP JUMP JUMPDEST PUSH2 0x1DB6 DUP3 PUSH2 0x1109 JUMP JUMPDEST PUSH8 0xFFFFFFFFFFFFFFFF DUP2 GT ISZERO PUSH2 0x1DCF JUMPI PUSH2 0x1DCE PUSH2 0x12A9 JUMP JUMPDEST JUMPDEST PUSH2 0x1DD9 DUP3 SLOAD PUSH2 0x1904 JUMP JUMPDEST PUSH2 0x1DE4 DUP3 DUP3 DUP6 PUSH2 0x1D24 JUMP JUMPDEST PUSH0 PUSH1 0x20 SWAP1 POP PUSH1 0x1F DUP4 GT PUSH1 0x1 DUP2 EQ PUSH2 0x1E15 JUMPI PUSH0 DUP5 ISZERO PUSH2 0x1E03 JUMPI DUP3 DUP8 ADD MLOAD SWAP1 POP JUMPDEST PUSH2 0x1E0D DUP6 DUP3 PUSH2 0x1D92 JUMP JUMPDEST DUP7 SSTORE POP PUSH2 0x1E74 JUMP JUMPDEST PUSH1 0x1F NOT DUP5 AND PUSH2 0x1E23 DUP7 PUSH2 0x1C10 JUMP JUMPDEST PUSH0 JUMPDEST DUP3 DUP2 LT ISZERO PUSH2 0x1E4A JUMPI DUP5 DUP10 ADD MLOAD DUP3 SSTORE PUSH1 0x1 DUP3 ADD SWAP2 POP PUSH1 0x20 DUP6 ADD SWAP5 POP PUSH1 0x20 DUP2 ADD SWAP1 POP PUSH2 0x1E25 JUMP JUMPDEST DUP7 DUP4 LT ISZERO PUSH2 0x1E67 JUMPI DUP5 DUP10 ADD MLOAD PUSH2 0x1E63 PUSH1 0x1F DUP10 AND DUP3 PUSH2 0x1D76 JUMP JUMPDEST DUP4 SSTORE POP JUMPDEST PUSH1 0x1 PUSH1 0x2 DUP9 MUL ADD DUP9 SSTORE POP POP POP JUMPDEST POP POP POP POP POP POP JUMP JUMPDEST PUSH32 0x446F6E6174696F6E20706572696F642068617320656E64656400000000000000 PUSH0 DUP3 ADD MSTORE POP JUMP JUMPDEST PUSH0 PUSH2 0x1EB0 PUSH1 0x19 DUP4 PUSH2 0x1113 JUMP JUMPDEST SWAP2 POP PUSH2 0x1EBB DUP3 PUSH2 0x1E7C JUMP JUMPDEST PUSH1 0x20 DUP3 ADD SWAP1 POP SWAP2 SWAP1 POP JUMP JUMPDEST PUSH0 PUSH1 0x20 DUP3 ADD SWAP1 POP DUP2 DUP2 SUB PUSH0 DUP4 ADD MSTORE PUSH2 0x1EDD DUP2 PUSH2 0x1EA4 JUMP JUMPDEST SWAP1 POP SWAP2 SWAP1 POP JUMP JUMPDEST PUSH32 0x446F6E6174696F6E20616D6F756E74206D757374206265206772656174657220 PUSH0 DUP3 ADD MSTORE PUSH32 0x7468616E207A65726F0000000000000000000000000000000000000000000000 PUSH1 0x20 DUP3 ADD MSTORE POP JUMP JUMPDEST PUSH0 PUSH2 0x1F3E PUSH1 0x29 DUP4 PUSH2 0x1113 JUMP JUMPDEST SWAP2 POP PUSH2 0x1F49 DUP3 PUSH2 0x1EE4 JUMP JUMPDEST PUSH1 0x40 DUP3 ADD SWAP1 POP SWAP2 SWAP1 POP JUMP JUMPDEST PUSH0 PUSH1 0x20 DUP3 ADD SWAP1 POP DUP2 DUP2 SUB PUSH0 DUP4 ADD MSTORE PUSH2 0x1F6B DUP2 PUSH2 0x1F32 JUMP JUMPDEST SWAP1 POP SWAP2 SWAP1 POP JUMP INVALID LOG2 PUSH5 0x6970667358 0x22 SLT KECCAK256 0x27 ADD 0xF8 PUSH14 0x6D0D01462BA87269BBA8B63CEBA5 SWAP4 0xCF 0xE4 EXTCODESIZE 0xCA 0xCC SLT SDIV MUL 0xD COINBASE 0x28 0xD4 0xDD PUSH5 0x736F6C6343 STOP ADDMOD BYTE STOP CALLER LOG2 PUSH5 0x6970667358 0x22 SLT KECCAK256 BLOBBASEFEE 0xF7 0x21 0xB9 PUSH21 0x7A395A50EADF66F8E97BC9FBD5476A32E814BF2303 0x27 CALLER DUP3 AND PUSH12 0x3464736F6C634300081A0033 "
		},
		"gasEstimates": {
			"creation": {
				"codeDepositCost": "2526200",
				"executionCost": "2723",
				"totalCost": "2528923"
			},
			"external": {
				"charityEvents(uint256)": "infinite",
				"createCharityEvent(string,uint256)": "infinite",
				"getCharityEvents()": "infinite"
			}
		},
		"methodIdentifiers": {
			"charityEvents(uint256)": "1156d3e9",
			"createCharityEvent(string,uint256)": "94d3701e",
			"getCharityEvents()": "c969ebdd"
		}
	},
	"abi": [
		{
			"inputs": [
				{
					"internalType": "uint256",
					"name": "",
					"type": "uint256"
				}
			],
			"name": "charityEvents",
			"outputs": [
				{
					"internalType": "address",
					"name": "contractAddress",
					"type": "address"
				},
				{
					"internalType": "string",
					"name": "name",
					"type": "string"
				}
			],
			"stateMutability": "view",
			"type": "function"
		},
		{
			"inputs": [
				{
					"internalType": "string",
					"name": "_name",
					"type": "string"
				},
				{
					"internalType": "uint256",
					"name": "_durationDays",
					"type": "uint256"
				}
			],
			"name": "createCharityEvent",
			"outputs": [],
			"stateMutability": "nonpayable",
			"type": "function"
		},
		{
			"inputs": [],
			"name": "getCharityEvents",
			"outputs": [
				{
					"components": [
						{
							"internalType": "address",
							"name": "contractAddress",
							"type": "address"
						},
						{
							"internalType": "string",
							"name": "name",
							"type": "string"
						}
					],
					"internalType": "struct PlatformManager.CharityEventDetails[]",
					"name": "",
					"type": "tuple[]"
				}
			],
			"stateMutability": "view",
			"type": "function"
		}
	]
}