{
    "_format": "hh-sol-artifact-1",
    "contractName": "PlatformManager",
    "sourceName": "contracts/PlatformManager.sol",
    "abi": [
        {
            "inputs": [
                {
                    "internalType": "uint256",
                    "name": "",
                    "type": "uint256"
                }
            ],
            "name": "charityEvents",
            "outputs": [
                {
                    "internalType": "address",
                    "name": "contractAddress",
                    "type": "address"
                },
                {
                    "internalType": "string",
                    "name": "name",
                    "type": "string"
                }
            ],
            "stateMutability": "view",
            "type": "function"
        },
        {
            "inputs": [
                {
                    "internalType": "string",
                    "name": "_name",
                    "type": "string"
                },
                {
                    "internalType": "uint256",
                    "name": "_durationDays",
                    "type": "uint256"
                }
            ],
            "name": "createCharityEvent",
            "outputs": [],
            "stateMutability": "nonpayable",
            "type": "function"
        },
        {
            "inputs": [],
            "name": "getCharityEvents",
            "outputs": [
                {
                    "components": [
                        {
                            "internalType": "address",
                            "name": "contractAddress",
                            "type": "address"
                        },
                        {
                            "internalType": "string",
                            "name": "name",
                            "type": "string"
                        }
                    ],
                    "internalType": "struct PlatformManager.CharityEventDetails[]",
                    "name": "",
                    "type": "tuple[]"
                }
            ],
            "stateMutability": "view",
            "type": "function"
        }
    ],
    "bytecode": "0x6080604052348015600f57600080fd5b506133388061001f6000396000f3fe608060405234801561001057600080fd5b50600436106100415760003560e01c80631156d3e91461004657806394d3701e14610077578063c969ebdd14610093575b600080fd5b610060600480360381019061005b9190610421565b6100b1565b60405161006e92919061051f565b60405180910390f35b610091600480360381019061008c9190610684565b61018d565b005b61009b610283565b6040516100a89190610838565b60405180910390f35b600081815481106100c157600080fd5b90600052602060002090600202016000915090508060000160009054906101000a900473ffffffffffffffffffffffffffffffffffffffff169080600101805461010a90610889565b80601f016020809104026020016040519081016040528092919081815260200182805461013690610889565b80156101835780601f1061015857610100808354040283529160200191610183565b820191906000526020600020905b81548152906001019060200180831161016657829003601f168201915b5050505050905082565b600082338360405161019e906103ca565b6101aa939291906108c9565b604051809103906000f0801580156101c6573d6000803e3d6000fd5b509050600060405180604001604052808373ffffffffffffffffffffffffffffffffffffffff16815260200185815250908060018154018082558091505060019003906000526020600020906002020160009091909190915060008201518160000160006101000a81548173ffffffffffffffffffffffffffffffffffffffff021916908373ffffffffffffffffffffffffffffffffffffffff160217905550602082015181600101908161027b9190610ab3565b505050505050565b60606000805480602002602001604051908101604052809291908181526020016000905b828210156103c157838290600052602060002090600202016040518060400160405290816000820160009054906101000a900473ffffffffffffffffffffffffffffffffffffffff1673ffffffffffffffffffffffffffffffffffffffff1673ffffffffffffffffffffffffffffffffffffffff16815260200160018201805461033090610889565b80601f016020809104026020016040519081016040528092919081815260200182805461035c90610889565b80156103a95780601f1061037e576101008083540402835291602001916103a9565b820191906000526020600020905b81548152906001019060200180831161038c57829003601f168201915b505050505081525050815260200190600101906102a7565b50505050905090565b61277d80610b8683390190565b6000604051905090565b600080fd5b600080fd5b6000819050919050565b6103fe816103eb565b811461040957600080fd5b50565b60008135905061041b816103f5565b92915050565b600060208284031215610437576104366103e1565b5b60006104458482850161040c565b91505092915050565b600073ffffffffffffffffffffffffffffffffffffffff82169050919050565b60006104798261044e565b9050919050565b6104898161046e565b82525050565b600081519050919050565b600082825260208201905092915050565b60005b838110156104c95780820151818401526020810190506104ae565b60008484015250505050565b6000601f19601f8301169050919050565b60006104f18261048f565b6104fb818561049a565b935061050b8185602086016104ab565b610514816104d5565b840191505092915050565b60006040820190506105346000830185610480565b818103602083015261054681846104e6565b90509392505050565b600080fd5b600080fd5b7f4e487b7100000000000000000000000000000000000000000000000000000000600052604160045260246000fd5b610591826104d5565b810181811067ffffffffffffffff821117156105b0576105af610559565b5b80604052505050565b60006105c36103d7565b90506105cf8282610588565b919050565b600067ffffffffffffffff8211156105ef576105ee610559565b5b6105f8826104d5565b9050602081019050919050565b82818337600083830152505050565b6000610627610622846105d4565b6105b9565b90508281526020810184848401111561064357610642610554565b5b61064e848285610605565b509392505050565b600082601f83011261066b5761066a61054f565b5b813561067b848260208601610614565b91505092915050565b6000806040838503121561069b5761069a6103e1565b5b600083013567ffffffffffffffff8111156106b9576106b86103e6565b5b6106c585828601610656565b92505060206106d68582860161040c565b9150509250929050565b600081519050919050565b600082825260208201905092915050565b6000819050602082019050919050565b6107158161046e565b82525050565b600082825260208201905092915050565b60006107378261048f565b610741818561071b565b93506107518185602086016104ab565b61075a816104d5565b840191505092915050565b600060408301600083015161077d600086018261070c565b5060208301518482036020860152610795828261072c565b9150508091505092915050565b60006107ae8383610765565b905092915050565b6000602082019050919050565b60006107ce826106e0565b6107d881856106eb565b9350836020820285016107ea856106fc565b8060005b85811015610826578484038952815161080785826107a2565b9450610812836107b6565b925060208a019950506001810190506107ee565b50829750879550505050505092915050565b6000602082019050818103600083015261085281846107c3565b905092915050565b7f4e487b7100000000000000000000000000000000000000000000000000000000600052602260045260246000fd5b600060028204905060018216806108a157607f821691505b6020821081036108b4576108b361085a565b5b50919050565b6108c3816103eb565b82525050565b600060608201905081810360008301526108e381866104e6565b90506108f26020830185610480565b6108ff60408301846108ba565b949350505050565b60008190508160005260206000209050919050565b60006020601f8301049050919050565b600082821b905092915050565b6000600883026109697fffffffffffffffffffffffffffffffffffffffffffffffffffffffffffffffff8261092c565b610973868361092c565b95508019841693508086168417925050509392505050565b6000819050919050565b60006109b06109ab6109a6846103eb565b61098b565b6103eb565b9050919050565b6000819050919050565b6109ca83610995565b6109de6109d6826109b7565b848454610939565b825550505050565b600090565b6109f36109e6565b6109fe8184846109c1565b505050565b5b81811015610a2257610a176000826109eb565b600181019050610a04565b5050565b601f821115610a6757610a3881610907565b610a418461091c565b81016020851015610a50578190505b610a64610a5c8561091c565b830182610a03565b50505b505050565b600082821c905092915050565b6000610a8a60001984600802610a6c565b1980831691505092915050565b6000610aa38383610a79565b9150826002028217905092915050565b610abc8261048f565b67ffffffffffffffff811115610ad557610ad4610559565b5b610adf8254610889565b610aea828285610a26565b600060209050601f831160018114610b1d5760008415610b0b578287015190505b610b158582610a97565b865550610b7d565b601f198416610b2b86610907565b60005b82811015610b5357848901518255600182019150602085019450602081019050610b2e565b86831015610b705784890151610b6c601f891682610a79565b8355505b6001600288020188555050505b50505050505056fe608060405234801561001057600080fd5b5060405161277d38038061277d833981810160405281019061003291906102b4565b8260009081610041919061053a565b5081600160006101000a81548173ffffffffffffffffffffffffffffffffffffffff021916908373ffffffffffffffffffffffffffffffffffffffff1602179055506201518081610092919061063b565b4261009d919061067d565b6002819055505050506106b1565b6000604051905090565b600080fd5b600080fd5b600080fd5b600080fd5b6000601f19601f8301169050919050565b7f4e487b7100000000000000000000000000000000000000000000000000000000600052604160045260246000fd5b610112826100c9565b810181811067ffffffffffffffff82111715610131576101306100da565b5b80604052505050565b60006101446100ab565b90506101508282610109565b919050565b600067ffffffffffffffff8211156101705761016f6100da565b5b610179826100c9565b9050602081019050919050565b60005b838110156101a4578082015181840152602081019050610189565b60008484015250505050565b60006101c36101be84610155565b61013a565b9050828152602081018484840111156101df576101de6100c4565b5b6101ea848285610186565b509392505050565b600082601f830112610207576102066100bf565b5b81516102178482602086016101b0565b91505092915050565b600073ffffffffffffffffffffffffffffffffffffffff82169050919050565b600061024b82610220565b9050919050565b61025b81610240565b811461026657600080fd5b50565b60008151905061027881610252565b92915050565b6000819050919050565b6102918161027e565b811461029c57600080fd5b50565b6000815190506102ae81610288565b92915050565b6000806000606084860312156102cd576102cc6100b5565b5b600084015167ffffffffffffffff8111156102eb576102ea6100ba565b5b6102f7868287016101f2565b935050602061030886828701610269565b92505060406103198682870161029f565b9150509250925092565b600081519050919050565b7f4e487b7100000000000000000000000000000000000000000000000000000000600052602260045260246000fd5b6000600282049050600182168061037557607f821691505b6020821081036103885761038761032e565b5b50919050565b60008190508160005260206000209050919050565b60006020601f8301049050919050565b600082821b905092915050565b6000600883026103f07fffffffffffffffffffffffffffffffffffffffffffffffffffffffffffffffff826103b3565b6103fa86836103b3565b95508019841693508086168417925050509392505050565b6000819050919050565b600061043761043261042d8461027e565b610412565b61027e565b9050919050565b6000819050919050565b6104518361041c565b61046561045d8261043e565b8484546103c0565b825550505050565b600090565b61047a61046d565b610485818484610448565b505050565b5b818110156104a95761049e600082610472565b60018101905061048b565b5050565b601f8211156104ee576104bf8161038e565b6104c8846103a3565b810160208510156104d7578190505b6104eb6104e3856103a3565b83018261048a565b50505b505050565b600082821c905092915050565b6000610511600019846008026104f3565b1980831691505092915050565b600061052a8383610500565b9150826002028217905092915050565b61054382610323565b67ffffffffffffffff81111561055c5761055b6100da565b5b610566825461035d565b6105718282856104ad565b600060209050601f8311600181146105a45760008415610592578287015190505b61059c858261051e565b865550610604565b601f1984166105b28661038e565b60005b828110156105da578489015182556001820191506020850194506020810190506105b5565b868310156105f757848901516105f3601f891682610500565b8355505b6001600288020188555050505b505050505050565b7f4e487b7100000000000000000000000000000000000000000000000000000000600052601160045260246000fd5b60006106468261027e565b91506106518361027e565b925082820261065f8161027e565b915082820484148315176106765761067561060c565b5b5092915050565b60006106888261027e565b91506106938361027e565b92508282019050808211156106ab576106aa61060c565b5b92915050565b6120bd806106c06000396000f3fe6080604052600436106100e85760003560e01c80639475c1631161008a578063cc6cb19a11610059578063cc6cb19a146102c3578063de2ed89314610300578063e792dd8a1461032b578063ed88c68e1461036a576100e8565b80639475c1631461022857806396f300d4146102515780639754a3a81461027c578063b6e7eff1146102a7576100e8565b806329dcb0cf116100c657806329dcb0cf1461017e5780633a6a4d2e146101a9578063481c6a75146101c05780634abfa163146101eb576100e8565b80630121b93f146100ed57806306fdde031461011657806309eef43e14610141575b600080fd5b3480156100f957600080fd5b50610114600480360381019061010f91906110ed565b610374565b005b34801561012257600080fd5b5061012b610505565b60405161013891906111aa565b60405180910390f35b34801561014d57600080fd5b506101686004803603810190610163919061122a565b610593565b6040516101759190611272565b60405180910390f35b34801561018a57600080fd5b506101936105b3565b6040516101a0919061129c565b60405180910390f35b3480156101b557600080fd5b506101be6105b9565b005b3480156101cc57600080fd5b506101d561093e565b6040516101e291906112c6565b60405180910390f35b3480156101f757600080fd5b50610212600480360381019061020d91906110ed565b610964565b60405161021f91906112c6565b60405180910390f35b34801561023457600080fd5b5061024f600480360381019061024a9190611454565b6109a3565b005b34801561025d57600080fd5b50610266610afd565b604051610273919061156e565b60405180910390f35b34801561028857600080fd5b50610291610b8b565b60405161029e919061170a565b60405180910390f35b6102c160048036038101906102bc91906110ed565b610cdc565b005b3480156102cf57600080fd5b506102ea60048036038101906102e5919061122a565b610db2565b6040516102f7919061129c565b60405180910390f35b34801561030c57600080fd5b50610315610dca565b604051610322919061129c565b60405180910390f35b34801561033757600080fd5b50610352600480360381019061034d91906110ed565b610dd0565b6040516103619392919061173b565b60405180910390f35b610372610eb2565b005b60025442106103b8576040517f08c379a00000000000000000000000000000000000000000000000000000000081526004016103af906117c5565b60405180910390fd5b6000600460003373ffffffffffffffffffffffffffffffffffffffff1673ffffffffffffffffffffffffffffffffffffffff168152602001908152602001600020541161043a576040517f08c379a000000000000000000000000000000000000000000000000000000000815260040161043190611831565b60405180910390fd5b6006805490508110610481576040517f08c379a00000000000000000000000000000000000000000000000000000000081526004016104789061189d565b60405180910390fd5b600160068281548110610497576104966118bd565b5b906000526020600020906003020160020160008282546104b7919061191b565b92505081905550803373ffffffffffffffffffffffffffffffffffffffff167f758ce7d2b09ac027fc94a1655219010aa7e53bbc780a4ff3161fa70fb2aa915160405160405180910390a350565b600080546105129061197e565b80601f016020809104026020016040519081016040528092919081815260200182805461053e9061197e565b801561058b5780601f106105605761010080835404028352916020019161058b565b820191906000526020600020905b81548152906001019060200180831161056e57829003601f168201915b505050505081565b60076020528060005260406000206000915054906101000a900460ff1681565b60025481565b600160009054906101000a900473ffffffffffffffffffffffffffffffffffffffff1673ffffffffffffffffffffffffffffffffffffffff163373ffffffffffffffffffffffffffffffffffffffff1614610649576040517f08c379a000000000000000000000000000000000000000000000000000000000815260040161064090611a21565b60405180910390fd5b60025442101561068e576040517f08c379a000000000000000000000000000000000000000000000000000000000815260040161068590611ab3565b60405180910390fd5b6000805b6006805490508110156107025781600682815481106106b4576106b36118bd565b5b90600052602060002090600302016002015411156106f557600681815481106106e0576106df6118bd565b5b90600052602060002090600302016002015491505b8080600101915050610692565b506000805b60068054905081101561075c578260068281548110610729576107286118bd565b5b9060005260206000209060030201600201540361074f57818061074b90611ad3565b9250505b8080600101915050610707565b50600081116107a0576040517f08c379a000000000000000000000000000000000000000000000000000000000815260040161079790611b8d565b60405180910390fd5b6000816003546107b09190611bdc565b9050600060038190555062278d00426107c9919061191b565b60028190555060005b6006805490508110156109385783600682815481106107f4576107f36118bd565b5b9060005260206000209060030201600201540361092b576006818154811061081f5761081e6118bd565b5b906000526020600020906003020160000160009054906101000a900473ffffffffffffffffffffffffffffffffffffffff1673ffffffffffffffffffffffffffffffffffffffff166108fc839081150290604051600060405180830381858888f19350505050158015610896573d6000803e3d6000fd5b50600681815481106108ab576108aa6118bd565b5b906000526020600020906003020160000160009054906101000a900473ffffffffffffffffffffffffffffffffffffffff1673ffffffffffffffffffffffffffffffffffffffff167f26536799ace2c3dbe12e638ec3ade6b4173dcf1289be0a58d51a5003015649bd83604051610922919061129c565b60405180910390a25b80806001019150506107d2565b50505050565b600160009054906101000a900473ffffffffffffffffffffffffffffffffffffffff1681565b6005818154811061097457600080fd5b906000526020600020016000915054906101000a900473ffffffffffffffffffffffffffffffffffffffff1681565b600160009054906101000a900473ffffffffffffffffffffffffffffffffffffffff1673ffffffffffffffffffffffffffffffffffffffff163373ffffffffffffffffffffffffffffffffffffffff1614610a33576040517f08c379a0000000000000000000000000000000000000000000000000000000008152600401610a2a90611c7f565b60405180910390fd5b600660405180606001604052808373ffffffffffffffffffffffffffffffffffffffff1681526020018481526020016000815250908060018154018082558091505060019003906000526020600020906003020160009091909190915060008201518160000160006101000a81548173ffffffffffffffffffffffffffffffffffffffff021916908373ffffffffffffffffffffffffffffffffffffffff1602179055506020820151816001019081610aec9190611e4b565b506040820151816002015550505050565b60606005805480602002602001604051908101604052809291908181526020018280548015610b8157602002820191906000526020600020905b8160009054906101000a900473ffffffffffffffffffffffffffffffffffffffff1673ffffffffffffffffffffffffffffffffffffffff1681526020019060010190808311610b37575b5050505050905090565b60606006805480602002602001604051908101604052809291908181526020016000905b82821015610cd357838290600052602060002090600302016040518060600160405290816000820160009054906101000a900473ffffffffffffffffffffffffffffffffffffffff1673ffffffffffffffffffffffffffffffffffffffff1673ffffffffffffffffffffffffffffffffffffffff168152602001600182018054610c389061197e565b80601f0160208091040260200160405190810160405280929190818152602001828054610c649061197e565b8015610cb15780601f10610c8657610100808354040283529160200191610cb1565b820191906000526020600020905b815481529060010190602001808311610c9457829003601f168201915b5050505050815260200160028201548152505081526020019060010190610baf565b50505050905090565b6006805490508110610d23576040517f08c379a0000000000000000000000000000000000000000000000000000000008152600401610d1a90611f69565b60405180910390fd5b60068181548110610d3757610d366118bd565b5b906000526020600020906003020160000160009054906101000a900473ffffffffffffffffffffffffffffffffffffffff1673ffffffffffffffffffffffffffffffffffffffff166108fc349081150290604051600060405180830381858888f19350505050158015610dae573d6000803e3d6000fd5b5050565b60046020528060005260406000206000915090505481565b60035481565b60068181548110610de057600080fd5b90600052602060002090600302016000915090508060000160009054906101000a900473ffffffffffffffffffffffffffffffffffffffff1690806001018054610e299061197e565b80601f0160208091040260200160405190810160405280929190818152602001828054610e559061197e565b8015610ea25780601f10610e7757610100808354040283529160200191610ea2565b820191906000526020600020905b815481529060010190602001808311610e8557829003601f168201915b5050505050908060020154905083565b6002544210610ef6576040517f08c379a0000000000000000000000000000000000000000000000000000000008152600401610eed90611fd5565b60405180910390fd5b60003411610f39576040517f08c379a0000000000000000000000000000000000000000000000000000000008152600401610f3090612067565b60405180910390fd5b6000600460003373ffffffffffffffffffffffffffffffffffffffff1673ffffffffffffffffffffffffffffffffffffffff1681526020019081526020016000205403610fe4576005339080600181540180825580915050600190039060005260206000200160009091909190916101000a81548173ffffffffffffffffffffffffffffffffffffffff021916908373ffffffffffffffffffffffffffffffffffffffff1602179055505b34600460003373ffffffffffffffffffffffffffffffffffffffff1673ffffffffffffffffffffffffffffffffffffffff1681526020019081526020016000206000828254611033919061191b565b92505081905550346003600082825461104c919061191b565b925050819055503373ffffffffffffffffffffffffffffffffffffffff167f264f630d9efa0d07053a31163641d9fcc0adafc9d9e76f1c37c2ce3a558d2c5234604051611099919061129c565b60405180910390a2565b6000604051905090565b600080fd5b600080fd5b6000819050919050565b6110ca816110b7565b81146110d557600080fd5b50565b6000813590506110e7816110c1565b92915050565b600060208284031215611103576111026110ad565b5b6000611111848285016110d8565b91505092915050565b600081519050919050565b600082825260208201905092915050565b60005b83811015611154578082015181840152602081019050611139565b60008484015250505050565b6000601f19601f8301169050919050565b600061117c8261111a565b6111868185611125565b9350611196818560208601611136565b61119f81611160565b840191505092915050565b600060208201905081810360008301526111c48184611171565b905092915050565b600073ffffffffffffffffffffffffffffffffffffffff82169050919050565b60006111f7826111cc565b9050919050565b611207816111ec565b811461121257600080fd5b50565b600081359050611224816111fe565b92915050565b6000602082840312156112405761123f6110ad565b5b600061124e84828501611215565b91505092915050565b60008115159050919050565b61126c81611257565b82525050565b60006020820190506112876000830184611263565b92915050565b611296816110b7565b82525050565b60006020820190506112b1600083018461128d565b92915050565b6112c0816111ec565b82525050565b60006020820190506112db60008301846112b7565b92915050565b600080fd5b600080fd5b7f4e487b7100000000000000000000000000000000000000000000000000000000600052604160045260246000fd5b61132382611160565b810181811067ffffffffffffffff82111715611342576113416112eb565b5b80604052505050565b60006113556110a3565b9050611361828261131a565b919050565b600067ffffffffffffffff821115611381576113806112eb565b5b61138a82611160565b9050602081019050919050565b82818337600083830152505050565b60006113b96113b484611366565b61134b565b9050828152602081018484840111156113d5576113d46112e6565b5b6113e0848285611397565b509392505050565b600082601f8301126113fd576113fc6112e1565b5b813561140d8482602086016113a6565b91505092915050565b6000611421826111cc565b9050919050565b61143181611416565b811461143c57600080fd5b50565b60008135905061144e81611428565b92915050565b6000806040838503121561146b5761146a6110ad565b5b600083013567ffffffffffffffff811115611489576114886110b2565b5b611495858286016113e8565b92505060206114a68582860161143f565b9150509250929050565b600081519050919050565b600082825260208201905092915050565b6000819050602082019050919050565b6114e5816111ec565b82525050565b60006114f783836114dc565b60208301905092915050565b6000602082019050919050565b600061151b826114b0565b61152581856114bb565b9350611530836114cc565b8060005b8381101561156157815161154888826114eb565b975061155383611503565b925050600181019050611534565b5085935050505092915050565b600060208201905081810360008301526115888184611510565b905092915050565b600081519050919050565b600082825260208201905092915050565b6000819050602082019050919050565b6115c581611416565b82525050565b600082825260208201905092915050565b60006115e78261111a565b6115f181856115cb565b9350611601818560208601611136565b61160a81611160565b840191505092915050565b61161e816110b7565b82525050565b600060608301600083015161163c60008601826115bc565b506020830151848203602086015261165482826115dc565b91505060408301516116696040860182611615565b508091505092915050565b60006116808383611624565b905092915050565b6000602082019050919050565b60006116a082611590565b6116aa818561159b565b9350836020820285016116bc856115ac565b8060005b858110156116f857848403895281516116d98582611674565b94506116e483611688565b925060208a019950506001810190506116c0565b50829750879550505050505092915050565b600060208201905081810360008301526117248184611695565b905092915050565b61173581611416565b82525050565b6000606082019050611750600083018661172c565b81810360208301526117628185611171565b9050611771604083018461128d565b949350505050565b7f566f74696e6720706572696f642068617320656e646564000000000000000000600082015250565b60006117af601783611125565b91506117ba82611779565b602082019050919050565b600060208201905081810360008301526117de816117a2565b9050919050565b7f4f6e6c7920646f6e6f72732063616e20766f7465000000000000000000000000600082015250565b600061181b601483611125565b9150611826826117e5565b602082019050919050565b6000602082019050818103600083015261184a8161180e565b9050919050565b7f496e76616c6964206f7267616e697a6174696f6e20696e646578000000000000600082015250565b6000611887601a83611125565b915061189282611851565b602082019050919050565b600060208201905081810360008301526118b68161187a565b9050919050565b7f4e487b7100000000000000000000000000000000000000000000000000000000600052603260045260246000fd5b7f4e487b7100000000000000000000000000000000000000000000000000000000600052601160045260246000fd5b6000611926826110b7565b9150611931836110b7565b9250828201905080821115611949576119486118ec565b5b92915050565b7f4e487b7100000000000000000000000000000000000000000000000000000000600052602260045260246000fd5b6000600282049050600182168061199657607f821691505b6020821081036119a9576119a861194f565b5b50919050565b7f4f6e6c7920746865206d616e616765722063616e20646973747269627574652060008201527f66756e6473000000000000000000000000000000000000000000000000000000602082015250565b6000611a0b602583611125565b9150611a16826119af565b604082019050919050565b60006020820190508181036000830152611a3a816119fe565b9050919050565b7f446f6e6174696f6e20706572696f6420686173206e6f7420656e64656420796560008201527f7400000000000000000000000000000000000000000000000000000000000000602082015250565b6000611a9d602183611125565b9150611aa882611a41565b604082019050919050565b60006020820190508181036000830152611acc81611a90565b9050919050565b6000611ade826110b7565b91507fffffffffffffffffffffffffffffffffffffffffffffffffffffffffffffffff8203611b1057611b0f6118ec565b5b600182019050919050565b7f4e6f206f7267616e697a6174696f6e7320746f2064697374726962757465206660008201527f756e647320746f00000000000000000000000000000000000000000000000000602082015250565b6000611b77602783611125565b9150611b8282611b1b565b604082019050919050565b60006020820190508181036000830152611ba681611b6a565b9050919050565b7f4e487b7100000000000000000000000000000000000000000000000000000000600052601260045260246000fd5b6000611be7826110b7565b9150611bf2836110b7565b925082611c0257611c01611bad565b5b828204905092915050565b7f4f6e6c7920746865206d616e616765722063616e20616464206f7267616e697a60008201527f6174696f6e730000000000000000000000000000000000000000000000000000602082015250565b6000611c69602683611125565b9150611c7482611c0d565b604082019050919050565b60006020820190508181036000830152611c9881611c5c565b9050919050565b60008190508160005260206000209050919050565b60006020601f8301049050919050565b600082821b905092915050565b600060088302611d017fffffffffffffffffffffffffffffffffffffffffffffffffffffffffffffffff82611cc4565b611d0b8683611cc4565b95508019841693508086168417925050509392505050565b6000819050919050565b6000611d48611d43611d3e846110b7565b611d23565b6110b7565b9050919050565b6000819050919050565b611d6283611d2d565b611d76611d6e82611d4f565b848454611cd1565b825550505050565b600090565b611d8b611d7e565b611d96818484611d59565b505050565b5b81811015611dba57611daf600082611d83565b600181019050611d9c565b5050565b601f821115611dff57611dd081611c9f565b611dd984611cb4565b81016020851015611de8578190505b611dfc611df485611cb4565b830182611d9b565b50505b505050565b600082821c905092915050565b6000611e2260001984600802611e04565b1980831691505092915050565b6000611e3b8383611e11565b9150826002028217905092915050565b611e548261111a565b67ffffffffffffffff811115611e6d57611e6c6112eb565b5b611e77825461197e565b611e82828285611dbe565b600060209050601f831160018114611eb55760008415611ea3578287015190505b611ead8582611e2f565b865550611f15565b601f198416611ec386611c9f565b60005b82811015611eeb57848901518255600182019150602085019450602081019050611ec6565b86831015611f085784890151611f04601f891682611e11565b8355505b6001600288020188555050505b505050505050565b7f496e76616c6964206f7267616e697a6174696f6e204944000000000000000000600082015250565b6000611f53601783611125565b9150611f5e82611f1d565b602082019050919050565b60006020820190508181036000830152611f8281611f46565b9050919050565b7f446f6e6174696f6e20706572696f642068617320656e64656400000000000000600082015250565b6000611fbf601983611125565b9150611fca82611f89565b602082019050919050565b60006020820190508181036000830152611fee81611fb2565b9050919050565b7f446f6e6174696f6e20616d6f756e74206d75737420626520677265617465722060008201527f7468616e207a65726f0000000000000000000000000000000000000000000000602082015250565b6000612051602983611125565b915061205c82611ff5565b604082019050919050565b6000602082019050818103600083015261208081612044565b905091905056fea2646970667358221220f8250fc857f9547d0c4eeef7ee506763d78e41d997ed9c333dbfe51a7d6fe20b64736f6c634300081c0033a264697066735822122045c9447ef0c2c854067360c5b3216155e74cc12ef44d563648756ba216581ebb64736f6c634300081c0033",
    "linkReferences": {},
    "deployedLinkReferences": {}
}